:020000040000FA
:060000000A128A110C280F
:10000800FE00030EFA000A08FB000A128A11152ADC
:100018000A128A110F28F001F101F201F301F4012B
:10002800F5018313203084003A300A128A11C32361
:100038000A128A1183010A128A112228FF308316B4
:1000480003178800FF308316031385008B170B17DF
:10005800831203138C11831603138C1585168312D0
:100068000313BA01BB01BC0124300A128A117023A0
:100078000A128A110A128A118F230A128A11442835
:10008800013083120313BA000030BB000A128A1130
:10009800A3230A128A115028831203138C1E552891
:1000A8005628502857281A08C300C4014308A80036
:1000B8004408A900281C612862287E280230BA005A
:1000C8000030BB002908BD002808BC000A128A11AC
:1000D800FD220A128A11831203133B08F5003A081D
:1000E800F4007408013EB80075080318013E003E8C
:1000F800B90096280230BA000030BB002908BD00BC
:100108002808BC000A128A11FD220A128A118312D9
:1001180003133B08F5003A08F4007508B9007408A1
:10012800B8009628823083120313C400DD30C30060
:10013800C30B9C28C40B9C28023083120313BA00FB
:100148000030BB000A128A11A3230A128A11AC28B4
:10015800831203138C1EB128B228AC28B3281A08BE
:10016800C300C4014308A6004408A700261CBD28F4
:10017800BE28DA280230BA000030BB002708BD00CC
:100188002608BC000A128A11FD220A128A1183125B
:1001980003133B08F3003A08F2007208013EB60068
:1001A80073080318013E003EB700F2280230BA0077
:1001B8000030BB002708BD002608BC000A128A11BF
:1001C800FD220A128A11831203133B08F3003A082E
:1001D800F2007308B7007208B600F2288230831262
:1001E8000313C400DD30C300C30BF828C40BF82880
:1001F800033083120313BA000030BB000A128A11BD
:10020800A3230A128A110829831203138C1E0D29AD
:100218000E2908290F291A08C300C4014308A4009D
:100228004408A500241C19291A2936290230BA00C5
:100238000030BB002508BD002408BC000A128A1142
:10024800FD220A128A11831203133B08AF003A08F1
:10025800AE002E08013EB4002F080318013E003EF0
:10026800B5004E290230BA000030BB002508BD0099
:100278002408BC000A128A11FD220A128A1183126C
:1002880003133B08AF003A08AE002F08B5002E084C
:10029800B4004E29823083120313C400DD30C3003A
:1002A800C30B5429C40B5429043083120313BA0016
:1002B8000030BB000A128A11A3230A128A1164298A
:1002C800831203138C1E69296A2964296B291A0869
:1002D800C300C4014308A2004408A300221C7529D6
:1002E800762992290230BA000030BB002308BD00ED
:1002F8002208BC000A128A11FD220A128A118312EE
:1003080003133B08AD003A08AC002C08013EB200CC
:100318002D080318013E003EB300AA290230BA0096
:100328000030BB002308BD002208BC000A128A1155
:10033800FD220A128A11831203133B08AD003A0802
:10034800AC002D08B3002C08B200AA298230831211
:100358000313C400DD30C300C30BB029C40BB0299C
:10036800053083120313BA000030BB000A128A1149
:10037800A3230A128A11C029831203138C1EC529CC
:10038800C629C029C7291A08C300C4014308A00008
:100398004408A100201CD129D229EE290230BA0034
:1003A8000030BB002108BD002008BC000A128A11D9
:1003B800FD220A128A11831203133B08AB003A0884
:1003C800AA002A08013EB0002B080318013E003E8F
:1003D800B100062A0230BA000030BB002108BD0077
:1003E8002008BC000A128A11FD220A128A118312FF
:1003F80003133B08AB003A08AA002B08B1002A08EF
:10040800B000062A823083120313C400DD30C30013
:10041800C30B0C2AC40B0C2A442844280A128A113C
:100428000C28831203138C1D1A2A1B2AF62A0A1277
:100438008A11B0230A128A11F800F9017808F0002D
:100448007908F10070037104031D2B2A2C2A372A1E
:100458000310740DF600750DF7000A128A11CB23EC
:100468000A128A11F22A023070067104031D3D2A0D
:100478003E2A492A0310720DF600730DF7000A127E
:100488008A11CB230A128A11F22A033070067104EA
:10049800031D4F2A502A5D2A0310831203132E0DC1
:1004A800F6002F0DF7000A128A11CB230A128A11BF
:1004B800F22A043070067104031D632A642A712A23
:1004C8000310831203132C0DF6002D0DF7000A12EA
:1004D8008A11CB230A128A11F22A05307006710498
:1004E800031D772A782A852A0310831203132A0DFD
:1004F800F6002B0DF7000A128A11CB230A128A1173
:10050800F22A063070067104031D8B2A8C2A992A58
:10051800031083120313380DF600390DF7000A1281
:100528008A11CB230A128A11F22A07307006710445
:10053800031D9F2AA02AAD2A031083120313360D28
:10054800F600370DF7000A128A11CB230A128A1116
:10055800F22A083070067104031DB32AB42AC12A8E
:10056800031083120313340DF600350DF7000A1239
:100578008A11CB230A128A11F22A093070067104F3
:10058800031DC72AC82AD52A031083120313320D64
:10059800F600330DF7000A128A11CB230A128A11CA
:1005A800F22A0A3070067104031DDB2ADC2AF22ABB
:1005B800031083120313300DF600310DF7000A12F1
:1005C8008A11CB230A128A11F22AF22AF22AF22A73
:1005D800F22AF22AF22AF22AF22AF22A83120313C0
:1005E8008C11F62A7B088A007A0E8300FE0E7E0E96
:1005F800090083120313C001BB1F032B042B0C2B10
:10060800BA09BB09BA0A0319BB0AC001C00A0C2BF4
:10061800BD1F0F2B102B1A2BBC09BD09BC0A0319CF
:10062800BD0A0130BE003E08C0061A2BC101C20136
:100638003A083B040319212B222B5F2BBF01BF0A69
:10064800312B01300310BA0DBB0DFF3E031D262BC5
:100658000130BE003E08BF07312BBB1F342B352BA2
:10066800252B372B372B01300310C10DC20DFF3E50
:10067800031D382B3B083D02031D442B3A083C025E
:10068800031C472B482B502B3A08BC023B08031C81
:10069800BD03BD024114502B01300310BB0CBA0C32
:1006A800FF3E031D512B0130BF02031D5C2B5D2B48
:1006B800372B5F2B5F2B40080319632B642B6A2BA6
:1006C800C109C209C10A0319C20A6A2B4208BB0040
:1006D8004108BA006F2B080083120313BD0083166C
:1006E80003138712831203133D1D7B2B7C2B822B54
:1006F8003C088316031394008715892B83123A0844
:100708003C048316031394008711831203133D08D6
:100718003B0494000800831603131812181183165B
:100728000317871519308316031399009A0183124A
:100738000313981718168316031398160800A42B8A
:1007480083160313981CA92BAA2BA42BAB2B83125B
:1007580003133A08990008000A128A11BA230A12E8
:100768008A11831203131308B92B0800BB2B8316B5
:100778000313141CC02BC12BBB2BC22B0800640015
:100788008001840A0406031900340406C42B760881
:08079800831203139300080013
:04400E00D4E0FFFFFC
:00000001FF
