:020000040000FA
:100000000A128A11F32F00308A000408840A82073A
:100010000034203456343134203420342034203419
:1000200056343234203420342034203420345634B2
:10003000333400344534533454345234413444342A
:10004000413420342034233431343734303437349D
:10005000383400344A344F345334453420344A342D
:0C006000413456344934453452340034E5
:1005360064008001840A04060319003404069C2A18
:100546000A128A11CC220A128A1183160313111475
:1005560008000A128A11CC220A128A118316031382
:10056600111508000A128A11CC220A128A11700883
:100576008312031393000800C02A83160313981CE2
:10058600C52AC62AC02AC72A7008831203139900EF
:100596000800CD2A831603131419D22AD32ACD2A8A
:1005A60011081F39031DD82AD92ACD2ADA2A0800AC
:1005B600F1008312031388167108860088170D3020
:1005C600F000F00BE42A8312031388130800831249
:1005D600031388170130F0000030F1000A128A1167
:1005E600FC230A128A118312031388130800F700EA
:1005F6000A128A11A0230A128A117708831203139A
:100606008600881208130A128A11EA220A128A112F
:10061600080083160313181218118316031787157B
:1006260019308316031399009A018312031398173E
:1006360018168316031398160800F4000A128A1176
:10064600CC220A128A118316031311147408F200BD
:10065600F3017208F0007308F1000A128A11B5223C
:100666000A128A11080038300A128A11FA220A126E
:100676008A110E300A128A11FA220A128A110130E0
:100686000A128A11FA220A128A1106300A128A11ED
:10069600FA220A128A1180300A128A11FA220A12E2
:1006A6008A1108008312031388120730F3007D3085
:1006B600F200F20B5C2BF30B5C2B831203138817EF
:1006C600700886000730F3007D30F200F20B692BCC
:1006D600F30B692B8312031388130730F3007D3065
:1006E600F200F20B742BF30B742B0800F400F201EA
:1006F600F301912B7208740784000A128A110320F1
:100706000A128A110A128A11DB220A128A11013090
:10071600F2070318F30A0030F307912B72087407E7
:1007260084000A128A1103200A128A11003A031D54
:100736009D2B9E2B7D2B9F2B0800FF3083120313CE
:1007460086008030F600760886058812081788131A
:100756000130F0000030F1000A128A11FC230A125F
:100766008A1183120313881780300606031DBC2BDB
:10077600BD2BCC2B88130130F0000030F1000A129B
:100786008A11FC230A128A11831203138817CC2BB1
:10079600CC2B08000A128A11CC220A128A1183165F
:1007A600031391150A128A11CC220A128A11831296
:1007B60003131308F200F3017208F4007308F5003E
:1007C6000A128A11CC220A128A1170037104031DBF
:1007D600ED2BEE2BF22B831603139112F52B8316BA
:1007E6000313911611167508F1007408F000FB2B1F
:1007F6000800F401F501003075027930031974021E
:10080600031C062C072C092C2D2C2D2CF201F30190
:10081600122C0130F2070318F30A0030F3077308AD
:100826007102031D182C7208700203181B2C1C2C55
:100836000C2C1D2C0130F4070318F50A0030F507BF
:1008460000307502793003197402031C2B2C2C2CF2
:10085600092C2D2C080074037504031D332C342C2D
:10086600462C76087F3EF80077080318013E003EC6
:10087600F9007908F1007808F0000A128A11552368
:100886000A128A11602C023074067504031D4C2C62
:100896004D2C602C7608BF3EF80077080318013E01
:1008A600003EF9007908F1007808F0000A128A1172
:1008B60055230A128A11602C602C080028308312F6
:1008C6000313940083160313910183120313400844
:1008D600C4004108C5004208C6004308C7000230EC
:1008E6000310C40DC50DC60DC70DFF3E031D732CA9
:1008F6004708F3004608F2004508F1004408F000F6
:100906000030F7003D30F6000930F5000030F40005
:100916000A128A1199240A128A117008FF3E831658
:100926000313930094018715071608000030FC0096
:100936000030FB000030FA000030F9007308720442
:10094600710470040319A82CA92CFC2CFD01FD0AC6
:10095600BA2C0130F8000310F00DF10DF20DF30D75
:10096600F80BAE2C0130F8007808FD07BA2CF31FFF
:10097600BD2CBE2CAC2CC02CC02C0130F8000310B2
:10098600F90DFA0DFB0DFC0DF80BC22C730877025E
:10099600031DD72C72087602031DD72C7108750229
:1009A600031DD72C70087402031CDA2CDB2CEB2CED
:1009B6007008F4027108031C710FF5027208031C1B
:1009C600720FF6027308031C730FF7027914EB2CEF
:1009D60001300310F30CF20CF10CF00CFF3E031D7A
:1009E600EC2C0130FD02031DF92CFA2CC02CFC2C3A
:1009F600FC2C7C08F3007B08F2007A08F1007908E9
:100A0600F000052D0800D0300A128A1120230A12A0
:100A16008A111930F0000030F1000A128A11B5224D
:100A26000A128A110730F0000030F1000A128A110A
:100A3600B5220A128A110A128A11AC220A128A11E6
:100A4600D0300A128A1120230A128A116B30F00064
:100A56000030F1000A128A11B5220A128A110130F9
:100A6600F0000030F1000A128A11B5220A128A112A
:100A76000A128A11AC220A128A11D0300A128A117D
:100A860020230A128A111A30F0000030F1000A12EF
:100A96008A11B5220A128A110030F000F1000A12FA
:100AA6008A11B5220A128A110A128A11AC220A1276
:100AB6008A11D0300A128A1120230A128A111C3098
:100AC600F0000030F1000A128A11B5220A128A11CA
:100AD6000030F000F1000A128A11B5220A128A11BA
:100AE6000A128A11AC220A128A11D0300A128A110D
:100AF60020230A128A111B30F0000030F1000A127E
:100B06008A11B5220A128A111830F0000030F1005D
:100B16000A128A11B5220A128A110A128A11AC2205
:100B26000A128A11D0300A128A1120230A128A1157
:100B36003830F0000030F1000A128A11B5220A128C
:100B46008A110130F0000030F1000A128A11B52234
:100B56000A128A110A128A11AC220A128A11080094
:100B66008316031388018601003083120313C30022
:100B76000130C2008630C100A030C0000A128A11BE
:100B860061240A128A110A128A1106250A128A118A
:100B96000A128A110C230A128A110A128A113623A2
:100BA6000A128A1122300A128A1179230A128A112C
:100BB600C030F0000030F1000A128A1155230A12E3
:100BC6008A1112300A128A1179230A128A11F43014
:100BD600F0000130F1000A128A11FC230A128A1170
:100BE6000130F0000030F1000A128A1155230A1272
:100BF6008A110130F4000030F5000130F6000030B3
:100C0600F7000A128A112E240A128A1101300A12DA
:100C16008A1179230A128A11102E0A128A11A32226
:100C26000A128A115130F0000030F1000A128A11BE
:100C3600B5220A128A110030F000F1000A128A1158
:100C4600CD230A128A11710883120313BF0070089C
:100C5600BE000A128A11AC220A128A110D308312C2
:100C66000313C900FB30C800C80B372EC90B372E3B
:100C76000A128A11A3220A128A116130F00000308A
:100C8600F1000A128A11B5220A128A110030F00008
:100C9600F1000A128A11CD230A128A1171088312F1
:100CA6000313BD007008BC000A128A11AC220A1296
:100CB6008A110D3083120313C900FB30C800C80B1C
:100CC600622EC90B622E0A128A11A3220A128A11F7
:100CD6007130F0000030F1000A128A11B5220A12B2
:100CE6008A110030F000F1000A128A11CD230A128F
:100CF6008A11710883120313BB007008BA000A1226
:100D06008A11AC220A128A110D3083120313C9000C
:100D1600FB30C800C80B8D2EC90B8D2E0A128A1106
:100D2600A3220A128A118130F0000030F1000A1263
:100D36008A11B5220A128A110030F000F1000A1257
:100D46008A11CD230A128A11710883120313B9007E
:100D56007008B8000A128A11AC220A128A110D30E4
:100D660083120313C900FB30C800C80BB82EC90B89
:100D7600B82E831203133E033F04031DC32EC42E55
:100D8600C92E0130B6000030B700CC2EB601B7012F
:100D9600CC2E3D08803AFF0080307F02031DD52E01
:100DA6000B303C020318D82ED92EE02E01308312C8
:100DB6000313B0000030B100E52E83120313B00117
:100DC600B101E52E38033904031DEA2EEB2EF62E6B
:100DD600300331040319F02EF12EF62E0130B40043
:100DE6000030B500F92EB401B501F92E3B08803A62
:100DF600FF0080307F02031D022F64303A02031C7D
:100E0600052F062F0D2F013083120313B200003079
:100E1600B300122F83120313B201B301122F0A1269
:100E26008A11A3220A128A115030F0000030F10014
:100E36000A128A11B5220A128A118312031337087D
:100E4600F1003608F0000A128A11B5220A128A1138
:100E56000A128A11AC220A128A110D308312031368
:100E6600C900FB30C800C80B362FC90B362F0A1233
:100E76008A11A3220A128A116030F0000030F100B4
:100E86000A128A11B5220A128A118312031335082F
:100E9600F1003408F0000A128A11B5220A128A11EA
:100EA6000A128A11AC220A128A110D308312031318
:100EB600C900FB30C800C80B5E2FC90B5E2F0A1293
:100EC6008A11A3220A128A117030F0000030F10054
:100ED6000A128A11B5220A128A11831203133308E1
:100EE600F1003208F0000A128A11B5220A128A119C
:100EF6000A128A11AC220A128A110D3083120313C8
:100F0600C900FB30C800C80B862FC90B862F0130DD
:100F1600F0000030F1000A128A11BF220A128A116B
:100F2600831203133F08F1003E08F0000A128A11EB
:100F3600BF220A128A110230F0000030F1000A12B4
:100F46008A11BF220A128A11831203133D08F10087
:100F56003C08F0000A128A11BF220A128A110330D5
:100F6600F0000030F1000A128A11BF220A128A111B
:100F7600831203133B08F1003A08F0000A128A11A3
:100F8600BF220A128A110430F0000030F1000A1262
:100F96008A11BF220A128A11831203133F08F10035
:100FA6003E08F0000A128A11BF220A128A11053081
:100FB600F0000030F1000A128A11BF220A128A11CB
:100FC600831203133D08F1003C08F0000A128A114F
:100FD600BF220A128A11102E102E0A128A11002818
:100FE60083132030840040300A128A119B220A1291
:0A0FF6008A1183010A128A11B32D3B
:04400E00D4E0FFFFFC
:00000001FF
