:020000040000FA
:060000000A128A110C280F
:10000800FE00030EF2000A08F3000A128A111728EC
:100018000A128A110F28F501F601F701F801830188
:100028000A128A11BF28831203130C1F1C281D28CB
:1000380027281E08F000F1017008F5007108F60085
:100048009F140C1327288C1D2A282B288928141262
:10005800141B2F2830283528941F332834283D288E
:1000680035281308F0007008F800141394131416B8
:100078003D2883160313941A42284328622814192A
:10008800462847286228831203131308F0007008D3
:10009800F8008C111416502883160313141C5528C5
:1000A800562850285728831203131308F0007008A5
:1000B800F7005330F000F00B5F288528941A652864
:1000C80066288528141D69286A2885288312031341
:1000D8001308F0007008F80083160313141075084D
:1000E80083120313930014165330F000F00B7A2890
:1000F8007D28831603131418822883287D288528D1
:100108008528831203138C11892873088A00720EBC
:100118008300FE0E7E0E0900F40074088316031394
:100128009300363083120313940080308316031330
:10013800940001309100871507168B170B1783124F
:1001480003138C11831603138C15080083120313F1
:100158001F179F131F14831603139F131F129F1239
:100168000B170C178B17831203139F141F119F1162
:100178001F129F1208000A128A11AA200A128A1155
:1001880070300A128A1190200A128A11CC28CC28C1
:0A019800CC28CC280A128A110C288A
:04400E00D4E0FFFFFC
:00000001FF
