:020000040000FA
:100000000A128A11EB2FFF1B0D2883137F18831709
:100010000008840A0319FF0A080000308A00040857
:10002000840A82070034013400340A340034643412
:100030000034E83403341034273425342E3431347A
:100040006434203425342E34313464342034203464
:1000500025342E3433346434203425342E34313472
:100060006434203420342034203425342E34643455
:100070000034463420344C346C34203444346934F5
:10008000733420344C346934203420345334653490
:10009000633400344534533454345234413444349A
:1000A000413420342034233431343734303437343D
:1000B000383400344A344F345334453420344A34CD
:0C00C00041345634493445345234003485
:10059000F0007008831203139300080064008001C8
:1005A000840A0406031900340406CF2AD72A8316C6
:1005B0000313141CDC2ADD2AD72ADE2A08000A12BB
:1005C0008A11D6220A128A11831203131308E82A09
:1005D0000800F1008312031388167108860088173B
:1005E0000D30F000F00BF22A831203138813080079
:1005F0008312031388170130F0000030F1000A1253
:100600008A11F8230A128A1183120313881308002F
:10061000F7000A128A11CB230A128A117708831273
:1006200003138600881208130A128A11F8220A128C
:100630008A110800F100F0013A3071020318212BF1
:10064000222B2B2B30307102031C272B282B2B2B1A
:10065000F001F00A2B2B700C2D2B0800F3008316F1
:1006600003138712731D352B362B3A2B7208940017
:1006700087153E2B7008720494008711730871046B
:100680008312031394000800F300F201472B731C3C
:100690004A2B4B2B502B7008F1007108F207502B9E
:1006A0000310F00D0310F30C7308031D582B592B86
:1006B000472B5A2B72085C2B080038300A128A111B
:1006C00008230A128A110E300A128A1108230A120C
:1006D0008A1101300A128A1108230A128A1106307F
:1006E0000A128A1108230A128A1180300A128A110A
:1006F00008230A128A110800831203138812073094
:10070000F3007D30F200F20B832BF30B832B83126B
:1007100003138817700886000730F3007D30F2005D
:10072000F20B902BF30B902B8312031388130730DB
:10073000F3007D30F200F20B9B2BF30B9B2B080098
:100740008316031788018901831603130711880193
:100750008601071483160317880189018312031386
:10076000860185018801FF30831603178800FF305A
:10077000831603138500831203130715F001F1019B
:10078000F20120300A128A112E230A128A118312D2
:10079000031307110800FF30831203138600803013
:1007A000F600760886058812081788130130F000D5
:1007B0000030F1000A128A11F8230A128A118312FA
:1007C0000313881780300606031DE72BE82BF72B51
:1007D00088130130F0000030F1000A128A11F8236A
:1007E0000A128A11831203138817F72BF72B0800BC
:1007F000F401F50100307502793003197402031C0D
:10080000022C032C052C292C292CF201F3010E2C8F
:100810000130F2070318F30A0030F307730871027E
:10082000031D142C720870020318172C182C082CA6
:10083000192C0130F4070318F50A0030F5070030D1
:100840007502793003197402031C272C282C052CFF
:10085000292C080074037504031D2F2C302C422C06
:1008600076087F3EF80077080318013E003EF90045
:100870007908F1007808F0000A128A117C230A1224
:100880008A115C2C023074067504031D482C492C17
:100890005C2C7608BF3EF80077080318013E003E46
:1008A000F9007908F1007808F0000A128A117C2317
:1008B0000A128A115C2C5C2C080078087904031950
:1008C000622C632C982CFD01FD0A722C0130031060
:1008D000F80DF90DFF3E031D672C0130FC007C086C
:1008E000FD07722CF91F752C762C662C782C782C31
:1008F00079087B02031D7E2C78087A02031C812C68
:10090000822C892C7808FA027908031CFB03FB026D
:10091000892C01300310F90CF80CFF3E031D8A2CC2
:100920000130FD02031D952C962C782C982C982CC8
:100930007B08F9007A08F8009D2C0800F701F801FF
:10094000C42C77087207F5007308F4000318F40A42
:10095000F71FAB2CF4037408F60076088312031318
:10096000FF00750884000A128A1103200A128A11F6
:100970000A128A11E9220A128A110130F7070318B4
:10098000F80A0030F807C42C77087207F5007308DE
:10099000F4000318F40AF71FCE2CF4037408F600D1
:1009A000760883120313FF00750884000A128A1167
:1009B00003200A128A11003A031DDF2CE02CA12C1F
:1009C000E12C0800F501F601700871040319E92C07
:1009D000EA2C272DF701F70AF92C01300310F00D4E
:1009E000F10DFF3E031DEE2C0130F4007408F707F3
:1009F000F92CF11FFC2CFD2CED2CFF2CFF2C0130D1
:100A00000310F50DF60DFF3E031D002D7108730256
:100A1000031D0C2D70087202031C0F2D102D182DB4
:100A20007008F2027108031CF303F3027514182D09
:100A300001300310F10CF00CFF3E031D192D0130A5
:100A4000F702031D242D252DFF2C272D272D760899
:100A5000F1007508F0002C2D08000A128A11A0235D
:100A60000A128A110A128A115D230A128A11483069
:100A7000F2008030F3000A128A119E240A128A11B1
:100A8000C030F0000030F1000A128A117C230A12F3
:100A90008A113830F2008030F3000A128A119E2445
:100AA0000A128A11033083120313E5008A30E4002E
:100AB0005530E300E30B5A2DE40B5A2DE50B5A2D6C
:100AC0000130F0000030F1000A128A117C230A1272
:100AD0008A116A2D273083120313E3006308CE00C6
:100AE000A0300A128A1160260A128A110130F4001D
:100AF0000030F5000130F6000030F7000A128A11CC
:100B00002A240A128A11A030F2000030F3000A12DF
:100B10008A119E240A128A110B3083120313E300F8
:100B20006308CE002508D0002408CF002108D20099
:100B30002008D1002308D4002208D3002908D600B9
:100B40002808D5002708D8002608D7003E300A120A
:100B50008A1160260A128A110230F4000030F50072
:100B60000130F6000030F7000A128A112A240A1216
:100B70008A113E30F2000030F3000A128A119E24DE
:100B80000A128A11C73083120313E300C72DE30B47
:100B9000C62DCA2D01300A128A11C8220A128A11E2
:100BA0000A128A11DF220A128A1183120313E30048
:100BB000E4016308A8006408A9000D308312031340
:100BC000E400FB30E300E30BE32DE40BE32D023004
:100BD0000A128A11C8220A128A110A128A11DF2205
:100BE0000A128A1183120313E300E4016308A600CA
:100BF0006408A7000D3083120313E400FB30E30008
:100C0000E30B002EE40B002E03300A128A11C822D7
:100C10000A128A110A128A11DF220A128A11831219
:100C20000313E300E4016308A4006408A5000D3089
:100C300083120313E400FB30E300E30B1D2EE40BEF
:100C40001D2E04300A128A11C8220A128A110A12B1
:100C50008A11DF220A128A1183120313E300E401CE
:100C60006308A2006408A3000D3083120313E4009C
:100C7000FB30E300E30B3A2EE40B3A2E05300A1268
:100C80008A11C8220A128A110A128A11DF220A1254
:100C90008A1183120313E300E4016308A0006408CF
:100CA000A1000D3083120313E400FB30E300E30BDB
:100CB000572EE40B572E6A2D6A2D0A128A1100282E
:100CC00083120313E0004F30D9005908DC00D12F04
:100CD0002530620603196D2E6E2E7A2E6208D90019
:100CE000600884005908831380000130D900590836
:100CF000E007D12FDD014E0884000A128A110D2071
:100D00000A128A112E3A031D862E872EBF2E01301D
:100D1000D9005908CE07E101AD2E831203134E0806
:100D200084000A128A110D200A128A11D9000A3091
:100D3000DA005A08F00061080A128A1144230A12E4
:100D40008A11831203135907D03EDB005B08E100D0
:100D50000130D9005908CE07AD2E4E0884000A1282
:100D60008A110D200A128A110A128A111A230A12F4
:100D70008A110318BC2EBD2E8D2EC92EC92E8312AA
:100D80000313E101C92EC92EE52FE82EE82ED12F3D
:100D9000E82E013083120313CE07FF304E07840084
:100DA0000A128A110D200A128A11E200D900DA0112
:100DB0005A08003A0319DD2ED12F5908003A0319B9
:100DC000E52F643A0319E82E0D3A0319E82ED12FC6
:100DD0005C08840083130008DE00840A0008DF003A
:100DE0000230D9005908DC07DF1FF72EF82E022F3A
:100DF0000330D9005908DD04DE09DF09DE0A0319D2
:100E0000DF0A022F6108031D062F072F122F5E082D
:100E10005F04031D0C2F0D2F122F0130D90059082C
:100E2000E107122FE201E20A05306206031D192FC5
:100E30001A2F1C2F442F442F6208D9005907013E56
:100E400084000A128A110D200A128A11DA000A128D
:100E50008A110D200A128A11DB005B085F02031D54
:100E6000332F5A085E020318362F372F392F442F9D
:100E7000442F0130D9005908E20705306206031DEE
:100E8000422F432F1C2F442F6108D900DA01D91BB0
:100E9000DA035A08803A803C031D502F5908620239
:100EA0000318532F542F5B2F831203136108D900AB
:100EB0005908E200772F831203136108D900DA0181
:100EC000D91BDA035A08803ADB0080305B02031D2D
:100ED0006B2F6208590203186E2F6F2F772F831222
:100EE00003136208D9005908E100772F772F831286
:100EF00003135D08033903197E2F7F2FC62F2D3072
:100F0000D900600884005908831380000130D9009B
:100F10005908E007C62FC62F0A30F8000030F90044
:100F20006108D9005907013E84000A128A110D2078
:100F30000A128A11F0000A128A110D200A128A116F
:100F4000F1005F08F3005E08F2000A128A11E22441
:100F50000A128A117108FB007008FA000A128A113D
:100F60005D240A128A117808303E83120313DA00D6
:100F70005A08E2006208D900600884005908831307
:100F800080000130D9005908E007C62FFF30D90092
:100F90005908E107610A031DCE2FCF2F8C2FD12FC7
:100FA000D12F0130CE07FF304E0784000A128A117C
:100FB0000D200A128A11D9005908E2006208031DA7
:100FC000E22FE32F682EE52FE52F600884008313BE
:100FD0008001EA2F08008313203084004E300A126B
:100FE0008A11CE220A128A11A0308400B0300A126F
:100FF0008A11CE220A128A1183010A128A112D2D1A
:04400E00D4E0FFFFFC
:00000001FF
