:020000040000FA
:100000000A128A11D12FFF1B0D2883137F18831723
:100010000008840A0319FF0A080000308A00040857
:10002000840A82070034013400340A340034643412
:100030000034E83403341034273425342E3431347A
:100040006434203425342E3431346434203425345F
:100050002E3433346434203425342E343134643433
:10006000203425342E34323464340034453453344F
:100070005434523441344434413420342034233411
:100080003134373430343734383400344A344F3430
:100090005334453420344A34413456344934453499
:1000A00052340034831603131812181183160317E1
:1000B000871519308316031399009A0183120313CD
:1000C0009817181683160313981608000A128A1533
:1000D00047250A128A11D030F0000030F1000A12D0
:1000E0008A1559250A128A117708F1007608F0005E
:1000F0000A128A1559250A128A110A128A153E25F2
:100100000A128A11D130F0000030F1000A128A156B
:1001100059250A128A110030F000F1000A128A15DE
:10012000CB260A128A117108F9007008F8000A1229
:100130008A1550250A128A117908F7007808F60006
:10014000A128080083120313851485110512851256
:100150001430F1007930F000F00BAC28F10BAC2832
:10016000B1288312031385108515051285121430EA
:10017000F1007930F000F00BBB28F10BBB28C02850
:100180008312031385108511051685121430F100B2
:100190007930F000F00BCA28F10BCA28CF2883125F
:1001A000031385108511051285161430F10079307E
:1001B000F000F00BD928F10BD928DE2808007808C8
:1001C00079040319E428E5281A29FD01FD0AF42819
:1001D00001300310F80DF90DFF3E031DE928013031
:1001E000FC007C08FD07F428F91FF728F828E82808
:1001F000FA28FA2879087B02031D002978087A0278
:10020000031C032904290B297808FA027908031C26
:10021000FB03FB020B2901300310F90CF80CFF3E25
:10022000031D0C290130FD02031D17291829FA2886
:100230001A291A297B08F9007A08F8001F290800F2
:10024000F701F801462977087207F5007308F400F2
:100250000318F40AF71F2D29F4037408F600760832
:1002600083120313FF00750884000A128A11032009
:100270000A128A110A128A1589250A128A11013076
:10028000F7070318F80A0030F807462977087207BD
:10029000F5007308F4000318F40AF71F5029F4035B
:1002A0007408F600760883120313FF0075088400B3
:1002B0000A128A1103200A128A11003A031D6129C9
:1002C0006229232963290800F501F60170087104E9
:1002D00003196B296C29A929F701F70A7B29013039
:1002E0000310F00DF10DFF3E031D70290130F400E5
:1002F0007408F7077B29F11F7E297F296F2981293F
:10030000812901300310F50DF60DFF3E031D8229F2
:1003100071087302031D8E2970087202031C912953
:1003200092299A297008F2027108031CF303F30260
:1003300075149A2901300310F10CF00CFF3E031DD7
:100340009B290130F702031DA629A7298129A92984
:10035000A9297608F1007508F000AE2908000030E0
:10036000FC000030FB000030FA000030F900730898
:100370007204710470040319BE29BF29122AFD01F9
:10038000FD0AD0290130F8000310F00DF10DF20D37
:10039000F30DF80BC4290130F8007808FD07D029C7
:1003A000F31FD329D429C229D629D6290130F80030
:1003B0000310F90DFA0DFB0DFC0DF80BD82973088D
:1003C0007702031DED2972087602031DED297108DD
:1003D0007502031DED2970087402031CF029F12930
:1003E000012A7008F4027108031C710FF5027208EB
:1003F000031C720FF6027308031C730FF7027914C3
:10040000012A01300310F30CF20CF10CF00CFF3E4A
:10041000031D022A0130FD02031D0F2A102AD629CE
:10042000122A122A7C08F3007B08F2007A08F100F5
:100430007908F0001B2A0800FD00232A0130F8008B
:100440007808FD07232A7D088400203083130006E6
:1004500003192B2A2C2A1E2A7D0884000930000645
:100460000319332A342A1E2A352AFB01FC01FA011A
:100470007D0884002D300006031D3F2A402A492AAA
:100480000130F8007808FA070130F8007808FD0715
:100490007C2A7D0884002B300006031D502A512A37
:1004A0007C2A0130F8007808FD077C2A7C2A7C2A07
:1004B0007C08F1007B08F0000A30F2000030F30005
:1004C0000A128A154C260A128A117D0884008313A9
:1004D00000087007F80071080318710AF90078081D
:1004E000D03EFB0079080318013EFF3EFC000130BE
:1004F000F8007808FD077C2A7D08840000080A12AD
:100500008A15DC250A128A110318872A882A582A94
:10051000892A7A0803198D2A8E2A9B2A7B09F800DA
:100520007C09F900F80A0319F90A7808F600790835
:10053000F700A02AA02A7C08F7007B08F600A02A72
:10054000080083120313D9004A30D4005408D7009E
:10055000122C25305D060319AE2AAF2ABB2A5D088E
:10056000D400590884005408831380000130D4005B
:100570005408D907122CD801490884000A128A119C
:100580000D200A128A112E3A031DC72AC82A002BF1
:100590000130D4005408C907DC01EE2A831203138A
:1005A000490884000A128A110D200A128A11D40007
:1005B0000A30D5005508F0005C080A128A15F025AB
:1005C0000A128A11831203135407D03ED60056082C
:1005D000DC000130D4005408C907EE2A4908840021
:1005E0000A128A110D200A128A110A128A15DC25B4
:1005F0000A128A110318FD2AFE2ACE2A0A2B0A2B78
:1006000083120313DC010A2B0A2B262C292B292BFE
:10061000122C292B013083120313C907FF3049071D
:1006200084000A128A110D200A128A11DD00D400FA
:10063000D5015508003A03191E2B122C5408003A14
:100640000319262C643A0319292B0D3A0319292B77
:10065000122C5708840083130008DA00840A00086B
:10066000DB000230D4005408D707DB1F382B392BAE
:10067000432B0330D4005408D804DA09DB09DA0A22
:100680000319DB0A432B5C08031D472B482B532B14
:100690005A085B04031D4D2B4E2B532B0130D40005
:1006A0005408DC07532BDD01DD0A05305D06031D10
:1006B0005A2B5B2B5D2B852B852B5D08D4005407B3
:1006C000013E84000A128A110D200A128A11D500F7
:1006D0000A128A110D200A128A11D60056085B02EE
:1006E000031D742B55085A020318772B782B7A2B8D
:1006F000852B852B0130D4005408DD0705305D06BD
:10070000031D832B842B5D2B852B5C08D400D50126
:10071000D41BD5035508803A803C031D912B540807
:100720005D020318942B952B9C2B831203135C08FA
:10073000D4005408DD00B82B831203135C08D400E6
:10074000D501D41BD5035508803AD6008030560217
:10075000031DAC2B5D0854020318AF2BB02BB82B34
:10076000831203135D08D4005408DC00B82BB82BA7
:1007700083120313580803390319BF2BC02B072C0E
:100780002D30D400590884005408831380000130B0
:10079000D4005408D907072C072C0A30F800003081
:1007A000F9005C08D4005407013E84000A128A1143
:1007B0000D200A128A11F0000A128A110D200A1265
:1007C0008A11F1005B08F3005A08F2000A128A113C
:1007D00064210A128A117108FB007008FA000A12DB
:1007E0008A11DF200A128A117808303E831203131F
:1007F000D5005508DD005D08D40059088400540870
:10080000831380000130D4005408D907072CFF302F
:10081000D4005408DC075C0A031D0F2C102CCD2BD0
:10082000122C122C0130C907FF30490784000A122C
:100830008A110D200A128A11D4005408DD005D08C7
:10084000031D232C242CA92A262C262C590884008D
:10085000831380012B2C0800831603138801860163
:100860008501071483160317880189018312031376
:1008700086018501880105150030CC000130CB00D0
:100880008630CA00A030C9000A128A15C8270A1289
:100890008A110A128A1152200A128A110A128A1522
:1008A00009260A128A113430F2008030F3000A124D
:1008B0008A1120210A128A11C030F0000030F100A4
:1008C0000A128A1528260A128A112430F200803072
:1008D000F3000A128A1120210A128A11F430F00062
:1008E0000130F1000A128A15FA260A128A11013023
:1008F000F0000030F1000A128A1528260A128A1127
:10090000812C0A128A1547250A128A115130F000EB
:100910000030F1000A128A1559250A128A11003096
:10092000F000F1000A128A15CB260A128A1171080A
:1009300083120313C5007008C4000A128A155025DB
:100940000A128A111A3083120313DF00F730DE0017
:10095000DE0BA82CDF0BA82CAD2C0A128A1547251C
:100960000A128A116130F0000030F1000A128A1573
:1009700059250A128A110030F000F1000A128A1576
:10098000CB260A128A11710883120313C300700860
:10099000C2000A128A1550250A128A111A308312CF
:1009A0000313DF00F730DE00DE0BD42CDF0BD42C7A
:1009B000D92C0A128A1547250A128A117130F000C3
:1009C0000030F1000A128A1559250A128A110030E6
:1009D000F000F1000A128A15CB260A128A1171085A
:1009E00083120313C1007008C0000A128A15502533
:1009F0000A128A111A3083120313DF00F730DE0067
:100A0000DE0B002DDF0B002D052D0030F600F7006A
:100A10000A128A1166200A128A11770883120313B8
:100A2000B1007608B0000130F6000030F7000A127D
:100A30008A1166200A128A11770883120313AF0005
:100A40007608AE000230F6000030F7000A128A1174
:100A500066200A128A11770883120313AD00760804
:100A6000AC001F302C05AA0000302D05AB00203053
:100A70002C05A00000302D05A1000330F600003049
:100A8000F7000A128A1166200A128A117708831267
:100A90000313A9007608A8000430F6000030F70020
:100AA0000A128A1166200A128A1177088312031328
:100AB000A9007608A8000530F6000030F7000A12F9
:100AC0008A1166200A128A11770883120313A5007F
:100AD0007608A4000630F6000030F7000A128A11EA
:100AE00066200A128A11770883120313A30076087E
:100AF000A2002A080A128A156F250A128A11831287
:100B00000313DE005E08E2002A080A128A15302567
:100B10000A128A1183120313DE005E08E3002E0816
:100B20000A128A156F250A128A1183120313DE0036
:100B30005E08E5002E080A128A1530250A128A116D
:100B400083120313DE005E08E60030080A128A15DD
:100B50006F250A128A1183120313DE005E08E80073
:100B600030080A128A1530250A128A1183120313DB
:100B7000DE005E08E90028080A128A156F250A12AD
:100B80008A1183120313DE005E0883160313C1006B
:100B90008312031328080A128A1530250A128A11B3
:100BA00083120313DE005E0883160313C200831250
:100BB000031324080A128A156F250A128A11831258
:100BC0000313DE005E0883160313C40083120313AD
:100BD00024080A128A1530250A128A118312031377
:100BE000DE005E0883160313C50083120313220878
:100BF0000A128A156F250A128A1183120313DE0066
:100C00005E0883160313C7008312031322080A1217
:100C10008A1530250A128A1183120313DE005E083A
:100C200083160313C8008312031330080A128A15AF
:100C300030250A128A1183120313DE005E08C900F0
:100C400030080A128A156F250A128A1183120313BB
:100C5000DE005E08C80048300A128A111C220A12FF
:100C60008A11770883120313BD007608BC002008A0
:100C7000210403193C2E3D2E462E5030DE005E0826
:100C8000EB004D30DE005E08EC004F2E4130DE0000
:100C90005E08EB004D30DE005E08EC004F2E0B309E
:100CA000DE005E08C9004508CB004408CA004108C0
:100CB000CD004008CC004308CF004208CE003F08DA
:100CC000D1003E08D0003D08D3003C08D200CA3015
:100CD0000A128A11A1220A128A110230F40000308D
:100CE000F5000130F6000030F7000A128A152C27B3
:100CF0000A128A11CA30F2000030F3000A128A1177
:100D000020210A128A110130F4000030F500013070
:100D1000F6000030F7000A128A152C270A128A11F1
:100D20006230F2000030F3000A128A1120210A1208
:100D30008A11831203138C1E9E2E9F2E2B2F1A08AE
:100D4000DE00DF015E08C6005F08C7002B2F2B2FD7
:100D50004508F1004408F0000A128A157C250A12A1
:100D60008A110D3083120313DF00FB30DE00DE0B2F
:100D7000B72EDF0BB72E432F831203134308F10066
:100D80004208F0000A128A157C250A128A110D30D9
:100D900083120313DF00FB30DE00DE0BCD2EDF0BF2
:100DA000CD2E432F831203134108F1004008F000B9
:100DB0000A128A157C250A128A110D308312031338
:100DC000DF00FB30DE00DE0BE32EDF0BE32E432FD4
:100DD000831203133F08F1003E08F0000A128A153F
:100DE0007C250A128A110D3083120313DF00FB30B9
:100DF000DE00DE0BF92EDF0BF92E432F83120313D7
:100E00003D08F1003C08F0000A128A157C250A1200
:100E10008A110D3083120313DF00FB30DE00DE0B7E
:100E20000F2FDF0B0F2F432F831203133D08F10009
:100E30003C08F0000A128A157C250A128A110D302E
:100E400083120313DF00FB30DE00DE0B252FDF0BE8
:100E5000252F432F432F831203134708003A03190A
:100E6000322F142F4608013A0319A82E033A03190A
:100E7000BC2E013A0319D22E073A0319E82E013A83
:100E80000319FE2E142F8312031344034504031D7C
:100E90004A2F4B2F562F0A128A155F270A128A11E2
:100EA0000A128A1593270A128A11572F05108312E6
:100EB0000313071C5C2F5D2F622F0130B20000303E
:100EC000B300652FB201B301652F0718682F692F92
:100ED0006C2FBE01BF01712F0130BE000030BF007A
:100EE000712F4308803AFF0080307F02031D7A2F64
:100EF0000B304202031C7D2F7E2F852F831203139C
:100F00000718832F842F8A2F852F83120313B20192
:100F1000B3018F2F0130B2000030B3008F2F3203A6
:100F20003304031D942F952F972F0515992F051125
:100F3000992F40034104031D9E2F9F2F812CE00118
:100F4000E1016108803AFF0081307F02031DAA2F72
:100F500000306002031CAD2FAE2FB02F812C812CEE
:100F60000A128A11A2200A128A1101308312031375
:100F7000E0070318E10A0030E1076108803AFF004A
:100F800081307F02031DC62F00306002031CC92F71
:100F9000CA2FB02F812C812C812C812C0A128A110E
:100FA00000288313CA30FD000E30FE007430FF00AD
:100FB000A03084000A128A15CD250A128A116E30DB
:100FC000FD000D30FE006330FF00623084000A1225
:100FD0008A15CD250A128A11CA308400DA300A1225
:100FE0008A1536250A128A112030840049300A12E7
:100FF0008A1536250A128A1183010A128A112C2CAD
:101A6000F00070080F39303E352D08006400800109
:101A7000840A0406031900340406372D0A128A1555
:101A800098250A128A1583160313911408000A1266
:101A90008A1598250A128A15831603131114080053
:101AA0000A128A1598250A128A158316031311152E
:101AB00008000A128A1598250A128A1570088312DE
:101AC000031393000800303430343A343034303467
:101AD0003A3430343034203450344D340034F10052
:101AE0007108F00004300310F00CFF3E031D732D4D
:101AF0007008303E7B2D08007D2D83160313981C43
:101B0000822D832D7D2D842D70088312031399005F
:101B10000800F100831203138816710886008817E5
:101B20000D30F000F00B922D831203138813080080
:101B3000992D8316031314199E2D9F2D992D11088D
:101B40001F39031DA42DA52D992DA62D0800831244
:101B5000031388170130F0000030F1000A128A15D3
:101B6000FA260A128A158312031388130800F70055
:101B70000A128A159E260A128A1577088312031301
:101B80008600881208130A128A15A7250A128A15D8
:101B900008007E088A007F0882000A128A15C9257B
:101BA0000A128A158000840A04087D06031900348D
:101BB000FF0A0319FE0ACD2DF100F0013A3071023F
:101BC0000318E32DE42DED2D30307102031CE92DB7
:101BD000EA2DED2DF001F00AED2D700CEF2D08002F
:101BE000F300F201F32D731CF62DF72DFC2D700878
:101BF000F1007108F207FC2D0310F00D0310F30C37
:101C00007308031D042E052EF32D062E7208082ED0
:101C1000080038300A128A15B7250A128A150E30C4
:101C20000A128A15B7250A128A1501300A128A1576
:101C3000B7250A128A1506300A128A15B7250A1224
:101C40008A1580300A128A15B7250A128A150800EB
:101C50008312031388120730F3007D30F200F20B79
:101C60002F2EF30B2F2E8312031388177008860074
:101C70000730F3007D30F200F20B3C2EF30B3C2ECC
:101C80008312031388130730F3007D30F200F20B48
:101C9000472EF30B472E0800F401F5014F2E701C60
:101CA000522E532E592E7208F4070318F50A7308A2
:101CB000F50701300310F20DF30DFF3E031D5A2E00
:101CC00001300310F10CF00CFF3E031D612E700873
:101CD0007104031D6C2E6D2E4F2E6E2E7508F100B3
:101CE0007408F000732E0800533434343A3431341D
:101CF0002034303430343A34303430343A343034C0
:101D00003034203441344D340034533431343A3497
:101D100031342034533432343A343134203464345E
:101D20003A343034303430340034303430342D34BC
:101D3000303430342D34303430340034FF308312BA
:101D4000031386008030F60076088605881208178F
:101D500088130130F0000030F1000A128A15FA26CB
:101D60000A128A1583120313881780300606031D92
:101D7000BA2EBB2ECA2E88130130F0000030F100BD
:101D80000A128A15FA260A128A1583120313881773
:101D9000CA2ECA2E08000A128A1598250A128A1518
:101DA0008316031391150A128A1598250A128A15AB
:101DB000831203131308F200F3017208F40073088E
:101DC000F5000A128A1598250A128A157003710403
:101DD000031DEB2EEC2EF02E831603139112F32E1F
:101DE00083160313911611167508F1007408F0009C
:101DF000F92E0800F401F50100307502793003195D
:101E00007402031C042F052F072F2B2F2B2FF201F9
:101E1000F301102F0130F2070318F30A0030F30723
:101E200073087102031D162F720870020318192F10
:101E30001A2F0A2F1B2F0130F4070318F50A003060
:101E4000F50700307502793003197402031C292F3D
:101E50002A2F072F2B2F080074037504031D312F21
:101E6000322F442F76087F3EF80077080318013E92
:101E7000003EF9007908F1007808F0000A128A158E
:101E800028260A128A155E2F023074067504031D77
:101E90004A2F4B2F5E2F7608BF3EF80077080318B5
:101EA000013E003EF9007908F1007808F0000A12BE
:101EB0008A1528260A128A155E2F5E2F0800F20165
:101EC000F30100307302323003197202031C692FD0
:101ED0006A2F6C2F922F922F831203130514C73091
:101EE000F000722FF00B712F752F762F83120313D2
:101EF00005101930F100AB30F000F00B7D2FF10B25
:101F00007D2F822F0130F2070318F30A0030F30708
:101F100000307302323003197202031C902F912F8C
:101F20006C2F922F0800F201F3010030730232305F
:101F300003197202031C9D2F9E2FA02FC72FC72F9E
:101F40008312031305140330F1009730F000F00BF7
:101F5000A72FF10BA72FAC2F8312031305101830F6
:101F6000F1005F30F000F00BB32FF10BB32F013015
:101F7000F2070318F30A0030F3070030730232301F
:101F800003197202031CC52FC62FA02FC72F0800EC
:101F900028308312031394008316031391018312D4
:101FA00003134908CD004A08CE004B08CF004C0867
:101FB000D00002300310CD0DCE0DCF0DD00DFF3E61
:101FC000031DDA2F5008F3004F08F2004E08F1000D
:101FD0004D08F0000030F7003D30F6000930F50004
:101FE0000030F4000A128A11AF210A128A15700813
:101FF000FF3E83160313930094018715071608000C
:04400E00D4E0FFFFFC
:00000001FF
