:020000040000FA
:100000000A128A11D12FFF1B0D2883137F18831723
:100010000008840A0319FF0A080000308A00040857
:10002000840A820700344534533454345234413402
:1000300044344134203420342334313437343034A0
:100040003734383400344A344F3453344534203450
:0E0050004A3441345634493445345234003475
:10031600F00070080F39303E902908006400800113
:10032600840A040603190034040692290A128A1163
:10033600E7210A128A1183160313911408000A1280
:100346008A11E7210A128A11831603131114080071
:100356000A128A11E7210A128A118316031311154C
:1003660008000A128A11E7210A128A1170088312FC
:10037600031393000800F1007108F0000430031025
:10038600F00CFF3E031DC2297008303ECA29080042
:10039600CC2983160313981CD129D229CC29D32919
:1003A60070088312031399000800F10083120313E7
:1003B60088167108860088170D30F000F00BE129C9
:1003C6008312031388130800E829831603131419EC
:1003D600ED29EE29E82911081F39031DF329F4290F
:1003E600E829F52908008312031388170130F00065
:1003F6000030F1000A128A1114230A128A1183129C
:10040600031388130800F7000A128A11B8220A1289
:100416008A117708831203138600881208130A12BA
:100426008A11F6210A128A1108007E088A007F08BE
:1004360082000A128A1118220A128A118000840A7E
:1004460004087D0603190034FF0A0319FE0A1C2A54
:1004560083160313181218118316031787151930FC
:100466008316031399009A0183120313981718161B
:100476008316031398160800303430343A34303477
:1004860030343A3430343034203450344D3400343F
:10049600303430342D34303430342D34303430343C
:1004A600003438300A128A1106220A128A110E30D6
:1004B6000A128A1106220A128A1101300A128A11B8
:1004C60006220A128A1106300A128A1106220A1216
:1004D6008A1180300A128A1106220A128A1108002D
:1004E600533434343A3431342034303430343A34BA
:1004F600303430343A3430343034203441344D34AE
:100506000034533431343A343134203453343234B1
:100516003A343134203464343A343034303430347C
:1005260000348312031388120730F3007D30F20083
:10053600F20B9B2AF30B9B2A83120313881770086E
:1005460086000730F3007D30F200F20BA82AF30B89
:10055600A82A8312031388130730F3007D30F200B4
:10056600F20BB32AF30BB32A0800FF3083120313EE
:1005760086008030F60076088605881208178813EC
:100586000130F0000030F1000A128A1114230A1219
:100596008A1183120313881780300606031DD42A96
:1005A600D52AE42A88130130F0000030F1000A123F
:1005B6008A1114230A128A11831203138817E42A54
:1005C600E42A08000A128A11E7210A128A11831600
:1005D600031391150A128A11E7210A128A1183124E
:1005E60003131308F200F3017208F4007308F50010
:1005F6000A128A11E7210A128A1170037104031D77
:10060600052B062B0A2B8316031391120D2B83162B
:100616000313911611167508F1007408F000132BD8
:100626000800F401F50100307502793003197402EF
:10063600031C1E2B1F2B212B452B452BF201F301EF
:100646002A2B0130F2070318F30A0030F307730868
:100656007102031D302B720870020318332B342BE2
:10066600242B352B0130F4070318F50A0030F50763
:1006760000307502793003197402031C432B442B96
:10068600212B452B080074037504031D4B2B4C2BA3
:100696005E2B76087F3EF80077080318013E003E81
:1006A600F9007908F1007808F0000A128A119422FC
:1006B6000A128A11782B023074067504031D642B06
:1006C600652B782B7608BF3EF80077080318013EA5
:1006D600003EF9007908F1007808F0000A128A1144
:1006E60094220A128A11782B782B0800283083125C
:1006F60003139400831603139101831203135D08F9
:10070600E1005E08E2005F08E3006008E4000230F2
:100716000310E10DE20DE30DE40DFF3E031D8B2BEF
:100726006408F3006308F2006208F1006108F00053
:100736000030F7003D30F6000930F5000030F400D7
:100746000A128A1131240A128A117008FF3E831692
:100756000313930094018715071608000A128A11DD
:10076600A2210A128A11D030F0000030F1000A12DC
:100776008A11B4210A128A117708F1007608F0006E
:100786000A128A11B4210A128A110A128A119921AF
:100796000A128A11D130F0000030F1000A128A11D3
:1007A600B4210A128A110030F000F1000A128A11EF
:1007B600E5220A128A117108F9007008F8000A1277
:1007C6008A11AB210A128A117908F7007808F60017
:1007D600EC2B0800F701F801132C77087207F500D7
:1007E6007308F4000318F40AF71FFA2BF4037408CD
:1007F600F600760883120313FF00750884000A12B8
:100806008A1103200A128A110A128A11D8210A12A1
:100816008A110130F7070318F80A0030F807132C7D
:1008260077087207F5007308F4000318F40AF71F37
:100836001D2CF4037408F600760883120313FF00D8
:10084600750884000A128A1103200A128A11003AD6
:10085600031D2E2C2F2CF02B302C08000030FC0012
:100866000030FB000030FA000030F9007308720413
:10087600710470040319402C412C942CFD01FD0ACF
:10088600522C0130F8000310F00DF10DF20DF30DAE
:10089600F80B462C0130F8007808FD07522CF31FA0
:1008A600552C562C442C582C582C0130F80003108B
:1008B600F90DFA0DFB0DFC0DF80B5A2C7308770297
:1008C600031D6F2C72087602031D6F2C71087502CA
:1008D600031D6F2C70087402031C722C732C832C5E
:1008E6007008F4027108031C710FF5027208031CEC
:1008F600720FF6027308031C730FF7027914832C28
:1009060001300310F30CF20CF10CF00CFF3E031D4A
:10091600842C0130FD02031D912C922C582C942C12
:10092600942C7C08F3007B08F2007A08F100790821
:10093600F0009D2C080083160313880186018501AB
:10094600071483160317880189018312031386018E
:100956008501880105150030E0000130DF00863092
:10096600DE00A030DD000A128A1179230A128A11EC
:100976000A128A112B220A128A110A128A11542289
:100986000A128A111130F2008030F3000A128A111D
:10099600ED230A128A11C030F0000030F1000A126D
:1009A6008A1194220A128A110130F2008030F30073
:1009B6000A128A11ED230A128A11F430F00001306E
:1009C600F1000A128A1114230A128A110130F0006A
:1009D6000030F1000A128A1194220A128A11F32CAD
:1009E6000A128A11A2210A128A115130F00000302F
:1009F600F1000A128A11B4210A128A110030F0009D
:100A0600F1000A128A11E5220A128A11710883126C
:100A16000313C5007008C4000A128A11AB210A121A
:100A26008A111A3083120313E600F730E500E50B4E
:100A36001A2DE60B1A2D1F2D0A128A11A2210A124F
:100A46008A116130F0000030F1000A128A11B421D7
:100A56000A128A110030F000F1000A128A11E5220A
:100A66000A128A11710883120313C3007008C200A8
:100A76000A128A11AB210A128A111A308312031341
:100A8600E600F730E500E50B462DE60B462D4B2D2F
:100A96000A128A11A2210A128A117130F00000305E
:100AA600F1000A128A11B4210A128A110030F000EC
:100AB600F1000A128A11E5220A128A1171088312BC
:100AC6000313C1007008C0000A128A11AB210A1272
:100AD6008A111A3083120313E600F730E500E50B9E
:100AE600722DE60B722D772D0030F600F7000A12F4
:100AF6008A11B1230A128A11770883120313B100EF
:100B06007608B0000130F6000030F7000A128A11AC
:100B1600B1230A128A11770883120313AF007608ED
:100B2600AE000230F6000030F7000A128A11B12337
:100B36000A128A11770883120313AD007608AC00F7
:100B46001F302C05AA0000302D05AB0020302C05E7
:100B5600A00000302D05A1000330F6000030F7009C
:100B66000A128A11B1230A128A1177088312031313
:100B7600A9007608A8000430F6000030F7000A1233
:100B86008A11B1230A128A11770883120313A90066
:100B96007608A8000530F6000030F7000A128A1120
:100BA600B1230A128A11770883120313A500760867
:100BB600A4000630F6000030F7000A128A11B123AD
:100BC6000A128A11770883120313A3007608A2007B
:100BD6002A080A128A11BE210A128A1183120313E5
:100BE600E5006508C8002A080A128A118B210A1234
:100BF6008A1183120313E5006508C9002E080A123C
:100C06008A11BE210A128A1183120313E5006508B0
:100C1600CB002E080A128A118B210A128A1183121E
:100C26000313E5006508CC0030080A128A11BE21BC
:100C36000A128A1183120313E5006508CE003008F4
:100C46000A128A118B210A128A1183120313E500F4
:100C56006508CF002D08BD002C08BC0028080A1224
:100C66008A11BE210A128A1183120313E500650850
:100C7600D40028080A128A118B210A128A118312BB
:100C86000313E5006508D50024080A128A11BE215F
:100C96000A128A1183120313E5006508D700240897
:100CA6000A128A118B210A128A1183120313E50094
:100CB6006508D80022080A128A11BE210A128A1172
:100CC60083120313E5006508DA0022080A128A1166
:100CD6008B210A128A1183120313E5006508DB00D3
:100CE600200821040319782E792E822E5030E50033
:100CF6006508D1004D30E5006508D2008A2E4130E6
:100D0600E5006508D1004D30E5006508D2004408CD
:100D1600E500650883160313B40083120313400825
:100D2600E500650883160313B9008312031342080E
:100D3600E500650883160313BD00831203133E08FE
:100D4600E500650883160313A300831203134808FE
:100D5600E500650883160313A500831203134908EB
:100D6600E500650883160313A600831203134B08D8
:100D7600E500650883160313A800831203134C08C5
:100D8600E500650883160313A900831203134E08B2
:100D9600E500650883160313AB00831203134F089F
:100DA600E500650883160313AC008312031351088C
:100DB600E500650883160313AE0083120313520879
:100DC600E500650883160313AF000230F400003017
:100DD600F5000130F6000030F7000A128A114623AA
:100DE6000A128A11A030F2000030F3000A128A11AA
:100DF600ED230A128A110130F4000030F5000130AB
:100E0600F6000030F7000A128A1146230A128A11E8
:100E1600B130F2000030F3000A128A11ED230A12F3
:100E26008A11831203138C1E192F1A2FA62F1A0844
:100E3600E500E6016508C6006608C700A62FA62FCE
:100E46004508F1004408F0000A128A11CB210A1263
:100E56008A110D3083120313E600FB30E500E50B23
:100E6600322FE60B322FBE2F831203134308F100F5
:100E76004208F0000A128A11CB210A128A110D309B
:100E860083120313E600FB30E500E50B482FE60B63
:100E9600482FBE2F831203134108F1004008F000CB
:100EA6000A128A11CB210A128A110D3083120313FA
:100EB600E600FB30E500E50B5E2FE60B5E2FBE2F4E
:100EC600831203133F08F1003E08F0000A128A114C
:100ED600CB210A128A110D3083120313E600FB3070
:100EE600E500E50B742FE60B742FBE2F8312031358
:100EF6003108F1003008F0000A128A11CB210A12DB
:100F06008A110D3083120313E600FB30E500E50B72
:100F16008A2FE60B8A2FBE2F831203134508F10092
:100F26004408F0000A128A11CB210A128A110D30E8
:100F360083120313E600FB30E500E50BA02FE60B5A
:100F4600A02FBE2FBE2F831203134708003A0319A2
:100F5600AD2F8F2F4608013A0319232F033A0319A1
:100F6600372F013A03194D2F073A0319632F013A18
:100F76000319792F8F2F831203130718C32FC42F3A
:100F8600C72FBE01BF01F32C0130BE000030BF00E9
:100F9600F32CF32CF32C0A128A1100288313C13088
:100FA600FD000230FE007330FF00A03084000A12FC
:100FB6008A111C220A128A115D30FD000230FE00E1
:100FC6003F30FF00483084000A128A111C220A12A0
:100FD6008A11C1308400D1300A128A1191210A1275
:100FE6008A112030840048300A128A1191210A128F
:0A0FF6008A1183010A128A119E2C51
:04400E00D4E0FFFFFC
:00000001FF
