:020000040000FA
:060000000A128A11F62F1E
:1003C2000A128A1191220A128A1127308312031308
:1003D200D700F430D600D60BEC29D70BEC2900005D
:1003E200E129E1290A128A110028F800F401F50135
:1003F2007008F200F3017208F6007308F700012A90
:10040200781C042A052A0B2A7608F4070318F50A31
:100412007708F50701300310F60DF70DFF3E031DB7
:100422000C2A0310F80C7808031D182A192A012A2D
:100432001A2A7508F1007408F0001F2A0800F60154
:10044200F11F242A252A2D2AF009F109F00A03199D
:10045200F10AF601F60A2D2AF31F302A312A3B2A25
:10046200F209F309F20A0319F30A0130F4007408DD
:10047200F6063B2AF701F801700871040319422AB3
:10048200432A802AF501F50A522A01300310F00DA1
:10049200F10DFF3E031D472A0130F4007408F507F1
:1004A200522AF11F552A562A462A582A582A01301A
:1004B2000310F70DF80DFF3E031D592A7108730250
:1004C200031D652A70087202031C682A692A712AB0
:1004D2007008F2027108031CF303F3027714712A05
:1004E20001300310F10CF00CFF3E031D722A0130A3
:1004F200F502031D7D2A7E2A582A802A802A760840
:100502000319842A852A8B2AF709F809F70A03199D
:10051200F80A8B2A7808F1007708F000902A080080
:10052200831203138514023083120313CF00CF0BFF
:10053200982A00008312031385109F2A051CA22A01
:10054200A32A9F2AA52AA52A0518A82AA92AA52AE4
:10055200AA2A5B08F3005A08F2000230F0000030C9
:10056200F1000A128A1120220A128A117008F90077
:100572007108FA000030FA1BFF30FB00FC0001306A
:100582000A128A11BD230A128A117C0883120313EC
:10059200B1007B08B0007A08AF007908AE003B30AA
:1005A200AD008330AC001230AB006F30AA000A12EB
:1005B2008A1181240A128A11831203132D08D5008D
:1005C2002C08D4002B08D3002A08D2005508B10009
:1005D2005408B0005308AF005208AE004230AD00DC
:1005E2000830AC000030AB000030AA000A128A11B9
:1005F20081240A128A11831203132D08C7002C08C2
:10060200C6002B08C5002A08C4000A128A11212339
:100612000A128A11831203134508D9004408D8002C
:10062200023083120313D1000430D000B930CF005E
:10063200CF0B192BD00B192BD10B192B202B080008
:10064200831203134408C8004508C9004608CA00BB
:100652004708CB0003104A0D4B0DCC004C08CE00CE
:100662004E08031D352B362B402B0030C7000030BF
:10067200C6000030C5000030C400BC2BBC2B4408AF
:10068200C8004508C9004608CA004708CB001F3009
:100692000310CB0CCA0CC90CC80CFF3E031D492B1E
:1006A2004808CC004C08CD00C617FF30C405FF3007
:1006B200C505FF30C6050030C7059630CE02CE1FF5
:1006C200632B642B892B4E08803A973E03186A2BC2
:1006D2006B2B762B0030C7000030C6000030C500FF
:1006E2000030C400BC2BBC2B762B01300310C70C8E
:1006F200C60CC50CC40CFF3E031D772B0130C8008D
:100702004808CE07031D862B872B762BAC2BAC2BF0
:1007120020304E02031C8E2B8F2BA52B0030C700DE
:100722000030C6000030C5000030C400BC2BBC2B1A
:10073200A52B0130C8000310C40DC50DC60DC70D91
:10074200C80B9C2B0130CE024E08031DA92BAA2BED
:100752009A2BAC2BAC2B4D080319B02BB12BBC2B15
:10076200C409C509C609C709C40A0319C50A031978
:10077200C60A0319C70A080083120313A400240837
:100782000319C42BC52BD92BFC1FC82BC92BD92B62
:100792007909A6007A09A7007B09A8007C09A900AB
:1007A200A60A0319A70A0319A80A0319A90AE12B21
:1007B2007C08A9007B08A8007A08A7007908A6008F
:1007C2007C087B047A047904031DE82BE92BF32BC4
:1007D2000030FC000030FB000030FA000030F9006D
:1007E200802C802C9630A0002008A500062C013019
:1007F200A0002008A50701300310A90CA80CA70C23
:10080200A60CFF3E031DFD2B062CFE302905031D01
:100812000B2C0C2CF82B292C292C0130A0002008A1
:10082200A5070130A607003003180130A7070030E2
:1008320003180130A807003003180130A90701305E
:100842000310A90CA80CA70CA60CFF3E031D212C1B
:10085200FF302905031D2E2C2F2C0E2C3D2C3D2C58
:100862000130A5020130A0000310A60DA70DA80DAE
:10087200A90DA00B352C3D2CA81B402C412C482C3B
:10088200023025020318462C472C312C482C2518FF
:100892004B2C4C2C542CFF30A605FF30A7057F3083
:1008A200A805FF30A9050310A50C2508A000A10189
:1008B200A201A30118300310A00DA10DA20DA30DDA
:1008C200FF3E031D5C2C2008A6042108A704220871
:1008D200A8042308A90424080319702C712C772C6E
:1008E200FC1F742C752C772CA917772C2908FC0077
:1008F2002808FB002708FA002608F900802C0800C7
:10090200831203132D088039B2003208B7002D0874
:10091200B2003207B3003308BD00AC1F912C922CF9
:10092200942C3D14942C3D080319982C992CA92C35
:100932003D0A031D9D2C9E2CA72C0030AD000030DB
:10094200AC000030AB000030AA00A72CAC17B22CD0
:100952000030AD000030AC000030AB000030AA0027
:10096200B22C31088039B2003208B7063108B20021
:100972003207B3003308BC00B01FC02CC12CC32CFB
:100982003C14C32C3C080319C72CC82CD82C3C0A95
:10099200031DCC2CCD2CD62C0030B1000030B00081
:1009A2000030AF000030AE00D62CB017E12C003082
:1009B200B1000030B0000030AF000030AE00E12CDA
:1009C2003C080319E52CE62CEC2C3D08031DEA2C0F
:1009D200EB2CF62CEC2C0030AD000030AC000030DB
:1009E200AB000030AA00F52FF52F2A08B20032081A
:1009F200F00030080A128A11F6210A128A117108CF
:100A020083120313C3007008C2004208B200B3018C
:100A1200B401B5013508BB003408BA003308B90087
:100A22003208B8004308B200B301B401B501350879
:100A3200C1003408C0003308BF003208BE002B08D2
:100A4200B2003208F0002F080A128A11F6210A12A7
:100A52008A11710883120313C3007008C20042088E
:100A6200B200B301B401B5013208B807330803116B
:100A72000318013E03193E2DB90734080311031868
:100A8200013E0319452DBA07350803110318013E2B
:100A920003194C2DBB074308B200B301B401B501E1
:100AA2003208BE07330803110318013E03195A2DF9
:100AB200BF07340803110318013E0319612DC00753
:100AC200350803110318013E0319682DC1072C08CC
:100AD200B2003208F0002E080A128A11F6210A1218
:100AE2008A11710883120313C3007008C2004208FE
:100AF200B200B301B401B5013208B80733080311DB
:100B02000318013E0319862DB9073408031103188F
:100B1200013E03198D2DBA07350803110318013E52
:100B22000319942DBB074308B200B301B401B50108
:100B32003208BE07330803110318013E0319A22D20
:100B4200BF07340803110318013E0319A92DC0077A
:100B5200350803110318013E0319B02DC1070830EF
:100B6200B2000310B80DB90DBA0DBB0DB20BB22D08
:100B72002B08B2003208F0002E080A128A11F62160
:100B82000A128A11710883120313C3007008C2008B
:100B92004208B2004308B300B401B5013208B807F5
:100BA200330803110318013E0319D82DB90734087D
:100BB20003110318013E0319DF2DBA07350803118B
:100BC2000318013E0319E62DBB072A08B2003208BA
:100BD200F0002F080A128A11F6210A128A117108EE
:100BE20083120313C3007008C2004208B200430814
:100BF200B300B401B5013208B80733080311031872
:100C0200013E0319052EB907340803110318013EEA
:100C120003190C2EBA07350803110318013E0319F4
:100C2200132EBB070830B2000310B80DB90DBA0D70
:100C3200BB0DB20B152E2A08B2003208F0002E08A6
:100C42000A128A11F6210A128A11710883120313F9
:100C5200C3007008C2004208B2004308B300B401E6
:100C6200B5013208B807330803110318013E03190E
:100C72003B2EB907340803110318013E0319422E13
:100C8200BA07350803110318013E0319492EBB07A1
:100C92002B08B2003208F00030080A128A11F6213D
:100CA2000A128A11710883120313C3007008C2006A
:100CB2004208B2004308B300B401B5013208BE07CE
:100CC200330803110318013E0319682EBF073408C5
:100CD20003110318013E03196F2EC00735080311D3
:100CE2000318013E0319762EC1072C08B200320800
:100CF200F0002F080A128A11F6210A128A117108CD
:100D020083120313C3007008C2004208B2004308F2
:100D1200B300B401B5013208BE073308031103184A
:100D2200013E0319952EBF07340803110318013E33
:100D320003199C2EC007350803110318013E03193D
:100D4200A32EC1072C08B2003208F00030080A12A4
:100D52008A11F6210A128A11710883120313C30041
:100D62007008C2004208B2004308B300B401B501E2
:100D720008300310B20DB30DB40DB50DFF3E031DC7
:100D8200BA2E3208BE07330803110318013E0319B5
:100D9200CB2EBF07340803110318013E0319D22ECC
:100DA200C007350803110318013E0319D92EC107E4
:100DB2003808B2003908B3003A08B4003B08B5005D
:100DC20018300310B50CB40CB30CB20CFF3E031D6B
:100DD200E22E3208BE07330803110318013E03193D
:100DE200F32EBF07340803110318013E0319FA2E2C
:100DF200C007350803110318013E0319012FC1076B
:100E02000830B2000310B80DB90DBA0DBB0DB20B0C
:100E1200032F3D083C07B200B301B30D3208823EF6
:100E2200C20033080318013EFF3EC300372F0130D2
:100E3200B2000310BE0DBF0DC00DC10DB20B1A2FB3
:100E4200BB1F242F252F272F3E14272F0130B2003E
:100E52000310B80DB90DBA0DBB0DB20B292FFF301F
:100E6200C2070318C30AFF30C307372FC01F3A2F28
:100E72003B2F182F3C2FBC01BB1F402F412F612F4E
:100E8200FF303805B200FF303905B300FF303A05B4
:100E9200B4007F303B05B500350834043304320416
:100EA2000319542F552F582FBC01BC0A612F3E1C29
:100EB2005B2F5C2F612FBC01BC0A612F612F612F58
:100EC2003C080319652F662F992F0130BE070030A9
:100ED20003180130BF07003003180130C00700308B
:100EE20003180130C107411C772F782F992F3E0834
:100EF200B2003F08B3004008B4004108B500013019
:100F0200B600350DB50CB40CB30CB20CB60B822F77
:100F12003508C1003408C0003308BF003208BE00E3
:100F22000130C2070318C30A0030C307992F992F53
:100F32004308803AFF0080307F02031DA22FFF305A
:100F42004202031CA52FA62FB12F7F308312031359
:100F5200C1008030C0000030BF000030BE00E82F6A
:100F6200831203134308803AFF0080307F02031D7F
:100F7200BC2F013042020318BF2FC02FCC2F0030EC
:100F820083120313C1000030C0000030BF000030E4
:100F9200BE00B701E82F831203134208B2003208E1
:100FA200BD00FF30BE05FF30BF057F30C0050030F9
:100FB200C1053D1CDD2FDE2FE02FC017E02F3D08BD
:100FC200B2000310320CB3003308C100E82F370817
:100FD200B2003208C1044108AD004008AC003F082D
:100FE200AB003E08AA00F52F080083120313D801B4
:0E0FF200D901DA01DB0183010A128A11E1291B
:04400E00D4E0FFFFFC
:00000001FF
