:020000040000FA
:060000000A128A110C280F
:10000800FE00030EF1000A08F2000A128A11B22D4E
:100018000A128A110F28F90183120313DA01DB018E
:10002800DC01DD01DE0183010A128A111D2E831213
:1000380003132D088039B2003208B7002D08B2002A
:100048003207B3003308BD00AC1F2B282C282E28FC
:100058003D142E283D0803193228332843283D0A29
:10006800031D3728382841280030AD000030AC0087
:100078000030AB000030AA004128AC174C280030F3
:10008800AD000030AC000030AB000030AA004C28B6
:1000980031088039B2003208B7063108B200320799
:1000A800B3003308BC00B01F5A285B285D283C14F5
:1000B8005D283C0803196128622872283C0A031D40
:1000C8006628672870280030B1000030B000003082
:1000D800AF000030AE007028B0177B280030B100A8
:1000E8000030B0000030AF000030AE007B283C0884
:1000F80003197F28802886283D08031D8428852821
:10010800902886280030AD000030AC000030AB00ED
:100118000030AA008F2B8F2B2A08B2003208F30078
:1001280030080A128A114F260A128A11740883129B
:100138000313C3007308C2004208B200B301B4013C
:10014800B5013508BB003408BA003308B9003208D5
:10015800B8004308B200B301B401B5013508C100C5
:100168003408C0003308BF003208BE002B08B200B4
:100178003208F3002F080A128A114F260A128A1130
:10018800740883120313C3007308C2004208B20044
:10019800B301B401B5013208B807330803110318D5
:1001A800013E0319D828B907340803110318013E82
:1001B8000319DF28BA07350803110318013E03198C
:1001C800E628BB074308B200B301B401B501320801
:1001D800BE07330803110318013E0319F428BF07AB
:1001E800340803110318013E0319FB28C00735081A
:1001F80003110318013E03190229C1072C08B20094
:100208003208F3002E080A128A114F260A128A11A0
:10021800740883120313C3007308C2004208B200B3
:10022800B301B401B5013208B80733080311031844
:10023800013E03192029B907340803110318013EA8
:1002480003192729BA07350803110318013E0319B2
:100258002E29BB074308B200B301B401B501320827
:10026800BE07330803110318013E03193C29BF07D1
:10027800340803110318013E03194329C007350840
:1002880003110318013E03194A29C1070830B200B7
:100298000310B80DB90DBA0DBB0DB20B4C292B08C4
:1002A800B2003208F3002E080A128A114F260A12E9
:1002B8008A11740883120313C3007308C20042082A
:1002C800B2004308B300B401B5013208B8073308D7
:1002D80003110318013E03197229B90734080311E1
:1002E8000318013E03197929BA07350803110318C1
:1002F800013E03198029BB072A08B2003208F3001F
:100308002F080A128A114F260A128A1174088312BA
:100318000313C3007308C2004208B2004308B300C5
:10032800B401B5013208B807330803110318013EB8
:1003380003199F29B907340803110318013E03194B
:10034800A629BA07350803110318013E0319AD2978
:10035800BB070830B2000310B80DB90DBA0DBB0DBC
:10036800B20BAF292A08B2003208F3002E080A128D
:100378008A114F260A128A11740883120313C300C4
:100388007308C2004208B2004308B300B401B501C3
:100398003208B807330803110318013E0319D52999
:1003A800B907340803110318013E0319DC29BA07F9
:1003B800350803110318013E0319E329BB072B086D
:1003C800B2003208F30030080A128A114F260A12C6
:1003D8008A11740883120313C3007308C200420809
:1003E800B2004308B300B401B5013208BE073308B0
:1003F80003110318013E0319022ABF073408031129
:100408000318013E0319092AC00735080311031808
:10041800013E0319102AC1072C08B2003208F30064
:100428002F080A128A114F260A128A117408831299
:100438000313C3007308C2004208B2004308B300A4
:10044800B401B5013208BE07330803110318013E91
:1004580003192F2ABF07340803110318013E031993
:10046800362AC007350803110318013E03193D2A2F
:10047800C1072C08B2003208F30030080A128A11AA
:100488004F260A128A11740883120313C3007308D3
:10049800C2004208B2004308B300B401B5010830F5
:1004A8000310B20DB30DB40DB50DFF3E031D542A54
:1004B8003208BE07330803110318013E0319652AE1
:1004C800BF07340803110318013E03196C2AC0073B
:1004D800350803110318013E0319732AC1073808A8
:1004E800B2003908B3003A08B4003B08B500183028
:1004F8000310B50CB40CB30CB20CFF3E031D7C2AE0
:100508003208BE07330803110318013E03198D2A68
:10051800BF07340803110318013E0319942AC007C2
:10052800350803110318013E03199B2AC107083037
:10053800B2000310B80DB90DBA0DBB0DB20B9D2A50
:100548003D083C07B200B301B30D3208823EC20039
:1005580033080318013EFF3EC300D12A0130B20020
:100568000310BE0DBF0DC00DC10DB20BB42ABB1FC9
:10057800BE2ABF2AC12A3E14C12A0130B200031084
:10058800B80DB90DBA0DBB0DB20BC32AFF30C207A7
:100598000318C30AFF30C307D12AC01FD42AD52A9B
:1005A800B22AD62ABC01BB1FDA2ADB2AFB2AFF3073
:1005B8003805B200FF303905B300FF303A05B40002
:1005C8007F303B05B5003508340433043204031981
:1005D800EE2AEF2AF22ABC01BC0AFB2A3E1CF52AA5
:1005E800F62AFB2ABC01BC0AFB2AFB2AFB2A3C0888
:1005F8000319FF2A002B332B0130BE0700300318E4
:100608000130BF07003003180130C007003003185D
:100618000130C107411C112B122B332B3E08B200AD
:100628003F08B3004008B4004108B5000130B600E7
:10063800350DB50CB40CB30CB20CB60B1C2B35082D
:10064800C1003408C0003308BF003208BE000130C2
:10065800C2070318C30A0030C307332B332B4308E0
:10066800803AFF0080307F02031D3C2BFF3042029E
:10067800031C3F2B402B4B2B7F3083120313C100ED
:100688008030C0000030BF000030BE00822B8312D3
:1006980003134308803AFF0080307F02031D562B66
:1006A800013042020318592B5A2B662B0030831253
:1006B8000313C1000030C0000030BF000030BE008E
:1006C800B701822B831203134208B2003208BD001F
:1006D800FF30BE05FF30BF057F30C0050030C105C3
:1006E8003D1C772B782B7A2BC0177A2B3D08B2004C
:1006F8000310320CB3003308C100822B3708B20054
:100708003208C1044108AD004008AC003F08AB0006
:100718003E08AA008F2B080083120313A4002408A4
:100728000319972B982BAC2BF61F9B2B9C2BAC2BD0
:100738007309A6007409A7007509A8007609A9001D
:10074800A60A0319A70A0319A80A0319A90AB42BA8
:100758007608A9007508A8007408A7007308A60001
:100768007608750474047304031DBB2BBC2BC62BBD
:100778000030F6000030F5000030F4000030F300DF
:10078800532C532C9630A0002008A500D92B0130FB
:10079800A0002008A50701300310A90CA80CA70C7D
:1007A800A60CFF3E031DD02BD92BFE302905031DB7
:1007B800DE2BDF2BCB2BFC2BFC2B0130A0002008E1
:1007C800A5070130A607003003180130A70700303D
:1007D80003180130A807003003180130A9070130B9
:1007E8000310A90CA80CA70CA60CFF3E031DF42BA4
:1007F800FF302905031D012C022CE12B102C102C95
:100808000130A5020130A0000310A60DA70DA80D08
:10081800A90DA00B082C102CA81B132C142C1B2C76
:10082800023025020318192C1A2C042C1B2C25180D
:100838001E2C1F2C272CFF30A605FF30A7057F3064
:10084800A805FF30A9050310A50C2508A000A101E3
:10085800A201A30118300310A00DA10DA20DA30D34
:10086800FF3E031D2F2C2008A6042108A7042208F8
:10087800A8042308A90424080319432C442C4A2C4F
:10088800F61F472C482C4A2CA9174A2C2908F60091
:100898002808F5002708F4002608F300532C080060
:1008A800831203138514023083120313CD00CD0B7A
:1008B8005B2C0000831203138510622C051C652C29
:1008C800662C622C1014682C051C6B2C6C2C712C5B
:1008D8000C1C6F2C702C682C712C10100C18752C9B
:1008E800762C8C2C0F08CD00CE014D08DC004E086C
:1008F800DD0008300310DC0DDD0DFF3E031D7E2CEE
:100908000E08CD00CE014D08DC044E08DD04902C05
:10091800DC01DD010C10902C5C08F3005D08F4008C
:10092800F501F60100300A128A1190230A128A1181
:10093800760883120313B1007508B0007408AF007D
:100948007308AE003F30AD000030AC000030AB00A3
:100958000030AA000A128A111B200A128A11831277
:1009680003132D08D3002C08D2002B08D1002A0825
:10097800D0005308B1005208B0005108AF00500829
:10098800AE004230AD000830AC000030AB000030A3
:10099800AA000A128A111B200A128A118312031351
:1009A8002D08D7002C08D6002B08D5002A08D4001B
:1009B8005708B1005608B0005508AF005408AE00FB
:1009C8003A30AD008330AC001230AB006F30AA0073
:1009D8000A128A111B200A128A11831203132D0886
:1009E800C7002C08C6002B08C5002A08C4000A1234
:1009F8008A1116250A128A11831203134508DB008F
:100A08004408DA00023083120313CF000430CE000A
:100A1800B930CD00CD0B0E2DCE0B0E2DCF0B0E2DDC
:100A2800152D0800831203134408C8004508C9009F
:100A38004608CA004708CB0003104A0D4B0DCC00EE
:100A48004C08F8007808031D2A2D2B2D352D003071
:100A5800C7000030C6000030C5000030C400B12D0A
:100A6800B12D4408C8004508C9004608CA0047080F
:100A7800CB001F300310CB0CCA0CC90CC80CFF3EAE
:100A8800031D3E2D4808CC004C08F700C617FF3060
:100A9800C405FF30C505FF30C6050030C7059630D0
:100AA800F802F81F582D592D7E2D7808803A973E68
:100AB80003185F2D602D6B2D0030C7000030C60075
:100AC8000030C5000030C400B12DB12D6B2D0130B0
:100AD8000310C70CC60CC50CC40CFF3E031D6C2DBF
:100AE8000130C8004808F807031D7B2D7C2D6B2DAD
:100AF800A12DA12D20307802031C832D842D9A2D41
:100B08000030C7000030C6000030C5000030C40007
:100B1800B12DB12D9A2D0130C8000310C40DC50D9B
:100B2800C60DC70DC80B912D0130F8027808031DBA
:100B38009E2D9F2D8F2DA12DA12D77080319A52D51
:100B4800A62DB12DC409C509C609C709C40A0319C8
:100B5800C50A0319C60A0319C70A08008312031332
:100B68008C1DB72DB82D162E1412141BBC2DBD2D9F
:100B7800C22D941FC02DC12DCA2DC22D1308F000FF
:100B88007008F900141394131416CA2D831603134E
:100B9800941ACF2DD02DEF2D1419D32DD42DEF2D40
:100BA800831203131308F0007008F9008C1114164F
:100BB800DD2D83160313141CE22DE32DDD2DE42D0A
:100BC800831203131308F0007008DE005330F0009E
:100BD800F00BEC2D122E941AF22DF32D122E141D5B
:100BE800F62DF72D122E831203131308F000700848
:100BF800F900831603131410831203135A08930081
:100C080014165330F000F00B072E0A2E8316031328
:100C180014180F2E102E0A2E122E122E83120313C2
:100C28008C11162E72088A00710E8300FE0E7E0E3D
:100C3800090060300A128A117B260A128A11CF3005
:100C4800831203139005901590108316031305144F
:100C58008510831203138510831603178801362E17
:100C6800362E362E831203138F018E010A128A1133
:100C780054240A128A11273083120313D900F4303E
:100C8800D800D80B452ED90B452E0000362E362E0F
:100C98000A128A110C2883120313A400A001A101CF
:100CA8007308F500F6017508A2007608A3005C2E0B
:100CB800241C5F2E602E662E2208A0070318A10AA6
:100CC8002308A10701300310A20DA30DFF3E031D49
:100CD800672E0310A40C2408031D732E742E5C2E9B
:100CE800752E2108F4002008F3007A2E0800F3007E
:100CF800730883160313930036308312031394008A
:100D0800803083160313940001309100871507166D
:100D18008B170B17831203138C11831603138C156F
:020D28000800C1
:04400E00D4E4FFFFF8
:00000001FF
