:020000040000FA
:060000000A128A110C280F
:10000800FE00030EF3000A08F4000A128A11B92848
:100018000A128A110F280A128A1159210A128A1102
:10002800F7000A128A115A210A128A11F800A0014F
:10003800A101A201A301A401A501A601A701F5013F
:10004800F60183010A128A112928FF308316031743
:100058008800FF308316031385008B170B17831254
:1000680003138C11831603138C158516831203133F
:10007800A801A901AA0124300A128A110D210A1225
:100088008A110A128A112C210A128A114B2883120A
:1000980003138C1E502851284B281A08AC00AD01B8
:1000A8002C08A0002D08A100A0285A288C1E5D2825
:1000B8005E285A285F281A08AC00AD012C08F50004
:1000C8002D08F6004B2868288C1E6B286C28682899
:1000D8006D281A08AC00AD012C08A6002D08A70051
:1000E8004B2876288C1E79287A2876287B281A08A7
:1000F800AC00AD012C08A4002D08A5004B288428CD
:100108008C1E87288828842889281A08AC00AD0105
:100118002C08A2002D08A3004B2892288C1E952895
:100128009628922897281A08AC00AD012C08F500EB
:100138002D08F6004B284B282108003A0319A5285A
:1001480092282008013A03195A28033A0319682803
:10015800013A03197628073A0319842892284B286C
:100168004B284B280A128A110C28831203138C1D62
:10017800BE28BF2806290A128A1140210A128A11AC
:10018800F100F2017108F7007208F80077037804AB
:10019800031DCF28D028D72875080A128A115321A1
:1001A8000A128A110229023077067804031DDD2815
:1001B800DE28E7288312031326080A128A1153211E
:1001C8000A128A110229033077067804031DED28E4
:1001D800EE28F7288312031324080A128A115321E0
:1001E8000A128A1102298312031322080A128A1199
:1001F80053210A128A1102290229022983120313A0
:100208008C11062974088A00730E8300FE0E7E0E78
:10021800090083120313AB0083160313871283129A
:1002280003132B1D182919291F292A0883160313BC
:10023800940087152629831228082A048316031395
:1002480094008711831203132B08290494000800D3
:1002580083160313181218118316031787151930FC
:100268008316031399009A0183120313981718161B
:1002780083160313981608000A128A114A210A12D3
:100288008A11831203131308492908004B2983167E
:100298000313141C502951294B2952290800F00036
:0E02A800700883120313930008000134003421
:04400E00D4E0FFFFFC
:00000001FF
