:020000040000FA
:060000000A128A110C280F
:10000800FE00030EF8000A08F9000A128A111928DE
:100018000A128A110F28F001F101F201F301F4012B
:10002800F50183010A128A119228831203130C1F07
:100038001E281F2829281E08F600F7017608F20056
:100048007708F3009F140C1329288C1D2C282D28C1
:100058008B281412141B312832283728941F35286E
:1000680036283F2837281308F6007608F5001413B9
:10007800941314163F2883160313941A442845280A
:10008800642814194828492864288312031313087C
:10009800F6007608F5008C111416522883160313FF
:1000A800141C572858285228592883120313130858
:1000B800F6007608F4005330F600F60B612887281E
:1000C800941A672868288728141D6B286C288728A5
:1000D800831203131308F6007608F500831603133A
:1000E8001410700883120313930014165330F6008B
:1000F800F60B7C287F288316031314188428852878
:100108007F2887288728831203138C118B28790866
:100118008A00780E8300FE0E7E0E09000A128A11EC
:10012800D2200A128A1150300A128A11B8200A12F3
:100138008A119E287308803AFF0080307F02031DD1
:10014800A728153072020318AA28AB28B028013056
:10015800F0000030F1009E28F001F1019E289E2851
:100168009E280A128A110C28FA007A0883160313AB
:1001780093003630831203139400803083160313E0
:10018800940001309100871507168B170B178312FF
:1001980003138C11831603138C15080083120313A1
:1001A8001F179F131F14831603139F131F129F12E9
:1001B8000B170C178B17831203139F141F119F1112
:0601C8001F129F12080047
:04400E00D4E0FFFFFC
:00000001FF
