:020000040000FA
:060000000A128A110C280F
:10000800FE00030EFA000A08FB000A128A11372BB9
:100018000A128A110F28F001F101F201F301F4012B
:10002800F5018313203084004A300A128A11D92638
:100038000A128A11A0308400B0300A128A11D92617
:100048000A128A1183010A128A112A2883160313B5
:100058008801860107148316031788018901831212
:100068000313860185018801FF3083160317880072
:10007800FF308316031385008B170B1783120313A6
:100088008C11831603138C15851683120313CA016A
:10009800CB01CC0124300A128A1100260A128A11D7
:1000A8000A128A1183260A128A110A128A111F2635
:1000B8000A128A11483083120313CC008030CD0015
:1000C8000A128A11B0240A128A11C030831203134B
:1000D800CA000030CB000A128A11D3250A128A11ED
:1000E800383083120313CC008030CD000A128A11F5
:1000F800B0240A128A11033083120313EF008A30E6
:10010800EE005530ED00ED0B8728EE0B8728EF0B3E
:100118008728013083120313CA000030CB000A126B
:100128008A11D3250A128A119928273083120313BA
:10013800ED006D08D800A0300A128A11B2210A1207
:100148008A11013083120313CE000030CF00013032
:10015800D0000030D1000A128A113B250A128A11F8
:10016800A03083120313CC000030CD000A128A118C
:10017800B0240A128A110B3083120313ED006D08A4
:10018800D8007308DA007208D9002308DC002208B6
:10019800DB002508DE002408DD002108E000200837
:1001A800DF007508E2007408E1003A300A128A118B
:1001B800B2210A128A11023083120313CE000030D2
:1001C800CF000130D0000030D1000A128A113B253F
:1001D8000A128A113A3083120313CC000030CD0082
:1001E8000A128A11B0240A128A11013083120313E9
:1001F800CA000030CB000A128A11B9260A128A11E5
:100208000529831203138C1E0A290B2905290C2999
:100218001A08ED00EE016D08F4006E08F500823052
:1002280083120313EE00DD30ED00ED0B1929EE0B00
:100238001929023083120313CA000030CB000A12B6
:100248008A11B9260A128A112929831203138C1ECE
:100258002E292F29292930291A08ED00EE016D08C9
:10026800F2006E08F300823083120313EE00DD30D3
:10027800ED00ED0B3D29EE0B3D29033083120313EE
:10028800CA000030CB000A128A11B9260A128A1154
:100298004D29831203138C1E522953294D295429A1
:1002A8001A08ED00EE016D08A4006E08A500823062
:1002B80083120313EE00DD30ED00ED0B6129EE0B28
:1002C8006129043083120313CA000030CB000A12DC
:1002D8008A11B9260A128A117129831203138C1EF6
:1002E80076297729712978291A08ED00EE016D0819
:1002F800A2006E08A300823083120313EE00DD30E3
:10030800ED00ED0B8529EE0B8529053083120313CB
:10031800CA000030CB000A128A11B9260A128A11C3
:100328009529831203138C1E9A299B2995299C29A8
:100338001A08ED00EE016D08A0006E08A1008230D9
:1003480083120313EE00DD30ED00ED0BA929EE0B4F
:10035800A929992899280A128A110C2883120313AB
:10036800EA005930E3006308E6001D2B25306C06CF
:100378000319BF29C029CC296C08E3006A08840046
:100388006308831380000130E3006308EA071D2B2C
:10039800E701580884000A128A110A240A128A11ED
:1003A8002E3A031DD829D929112A0130E300630800
:1003B800D807EB01FF2983120313580884000A1297
:1003C8008A110A240A128A11E3000A30E400640838
:1003D800CA006B080A128A113E260A128A11831271
:1003E80003136307D03EE5006508EB000130E30026
:1003F8006308D807FF29580884000A128A110A24BA
:100408000A128A110A128A1159260A128A11031825
:100418000E2A0F2ADF291B2A1B2A83120313EB013A
:100428001B2A1B2A312B322A322A1D2B322A013051
:1004380083120313D807FF30580784000A128A1161
:100448000A240A128A11EC00003A0319312B643A83
:100458000319322A0D3A0319322A1D2B6608840023
:1004680083130008E800840A0008E9000230E3006A
:100478006308E607E91F412A422A4C2A0330E300B1
:100488006308E704E809E909E80A0319E90A4C2AB4
:100498006B08031D502A512A5C2A68086904031D49
:1004A800562A572A5C2A0130E3006308EB075C2AC6
:1004B800EC01EC0A05306C06031D632A642A662ADF
:1004C8008E2A8E2A6C08E3006307013E84000A1214
:1004D8008A110A240A128A11E4000A128A110A24CB
:1004E8000A128A11E50065086902031D7D2A64085D
:1004F80068020318802A812A832A8E2A8E2A0130CC
:10050800E3006308EC0705306C06031D8C2A8D2A6E
:10051800662A8E2A6B08E300E401E31BE4036408FF
:10052800803A803C031D9A2A63086C0203189D2AAE
:100538009E2AA52A831203136B08E3006308EC00C4
:10054800C12A831203136B08E300E401E31BE403ED
:100558006408803AE50080306502031DB52A6C08FE
:1005680063020318B82AB92AC12A831203136C0834
:10057800E3006308EB00C12AC12A8312031367084A
:1005880003390319C82AC92A122B2D30E3006A0837
:1005980084006308831380000130E3006308EA07DE
:1005A800122B122B0A30D2000030D3006B08E30064
:1005B8006307013E84000A128A110A240A128A116A
:1005C800CA000A128A110A240A128A11CB00690881
:1005D800CD006808CC000A128A1163240A128A1115
:1005E800831203134B08D5004A08D4000A128A1153
:1005F800F8240A128A11831203135208303EE400C9
:100608006408EC006C08E3006A088400630883133C
:1006180080000130E3006308EA07122BFF30E30093
:100628006308EB076B0A031D1A2B1B2BD62A1D2BFD
:100638001D2B0130D807FF30580784000A128A1191
:100648000A240A128A11E3006308EC006C08031DEF
:100658002E2B2F2BBA29312B312B6A0884008313B8
:100668008001362B0800831203138C1D3C2B3D2B75
:10067800B42B0A128A11C6260A128A11F800F90147
:100688007808F0007908F10070037104031D4D2B00
:100698004E2B582B7508F7007408F6000A128A11B9
:1006A800E1260A128A11B02B023070067104031D6C
:1006B8005E2B5F2B692B7308F7007208F6000A128D
:1006C8008A11E1260A128A11B02B033070067104D0
:1006D800031D6F2B702B7C2B831203132508F70047
:1006E8002408F6000A128A11E1260A128A11B02B90
:1006F800043070067104031D822B832B8F2B831209
:1007080003132308F7002208F6000A128A11E126CB
:100718000A128A11B02B053070067104031D952B3F
:10072800962BA22B831203132108F7002008F6004A
:100738000A128A11E1260A128A11B02BFF30F6003C
:100748000030F7000A128A11E1260A128A11B02B2A
:10075800B02BB02BB02BB02B831203138C11B42BFE
:0E0768007B088A007A0E8300FE0E7E0E0900CA
:10080000FF1B0A2C83137F1883170008840A03191F
:10081000FF0A080004308A000408840A82070034B2
:10082000013400340A34003464340034E8340334CE
:100830001034273425342E343134643420342534B4
:100840002E34313464342034203425342E3433347F
:100850006434203425342E3431346434203420344C
:100860002034203425342E3464340034463420348B
:100870004C346C34203444346934733420344C3474
:1008800069342034203453346534633400344534BF
:1008900053345434523441344434413420342034B9
:1008A00023343134373430343734383400344A3434
:1008B0004F345334453420344A3441345634493467
:1008C00045345234003483120313D001D1014A0855
:1008D0004B0403196C2C6D2CAA2CCF01CF0A7C2C55
:1008E00001300310CA0DCB0DFF3E031D712C0130EA
:1008F000CE004E08CF077C2CCB1F7F2C802C702C79
:10090000822C822C01300310D00DD10DFF3E031D2F
:10091000832C4B084D02031D8F2C4A084C02031CEC
:10092000922C932C9B2C4A08CC024B08031CCD0321
:10093000CD0250149B2C01300310CB0CCA0CFF3E8F
:10094000031D9C2C0130CF02031DA72CA82C822C48
:10095000AA2CAA2C5108CB005008CA00AF2C0800C2
:1009600083120313D101D201DA2C51084C07CF00B6
:100970004D08CE000318CE0AD11FBF2CCE03831220
:1009800003134E08D0005008FF004F0884000A12DD
:100990008A1100240A128A110A128A1197260A1251
:1009A0008A11013083120313D1070318D20A0030D1
:1009B000D207DA2C51084C07CF004D08CE0003189F
:1009C000CE0AD11FE42CCE03831203134E08D000AD
:1009D0005008FF004F0884000A128A1100240A12EE
:1009E0008A11003A031DF52CF62CB52CF72C0800C3
:1009F00083120313520853040319FF2C002D352DC5
:100A0000D701D70A0F2D01300310D20DD30DFF3EB1
:100A1000031D042D0130D6005608D7070F2DD31F14
:100A2000122D132D032D152D152D53085502031DC1
:100A30001B2D52085402031C1E2D1F2D262D52085B
:100A4000D4025308031CD503D502262D0130031010
:100A5000D30CD20CFF3E031D272D0130D702031DFE
:100A6000322D332D152D352D352D5508D300540835
:100A7000D2003A2D0800831203134E034F04031DC6
:100A8000422D432D552D50087F3ED20051080318AA
:100A9000013E003ED3005308CB005208CA000A12A0
:100AA0008A11D3250A128A11712D02308312031381
:100AB0004E064F04031D5D2D5E2D712D5008BF3E67
:100AC000D20051080318013E003ED3005308CB006A
:100AD0005208CA000A128A11D3250A128A11712DEE
:100AE000712D080083120313CE01CF0100304F0295
:100AF000793003194E02031C7E2D7F2D812DA52DEB
:100B0000A52DCC01CD018A2D0130CC070318CD0ACB
:100B10000030CD074D084B02031D902D4C084A02B2
:100B20000318932D942D842D952D0130CE07031895
:100B3000CF0A0030CF0700304F02793003194E0240
:100B4000031CA32DA42D812DA52D0800FF30831299
:100B5000031386008030D0005008860588120817DD
:100B600088130130CA000030CB000A128A117225A6
:100B70000A128A1183120313881780300606031D98
:100B8000C22DC32DD22D88130130CA000030CB00F6
:100B90000A128A1172250A128A1183120313881706
:100BA000D22DD22D0800831203138812073083122E
:100BB0000313CD007C30CC00CC0BDC2DCD0BDC2D19
:100BC00000008312031388174A0886000730831237
:100BD0000313CD007C30CC00CC0BEC2DCD0BEC2DD9
:100BE0000000831203138813073083120313CD0010
:100BF0007C30CC00CC0BFA2DCD0BFA2D0000080078
:100C000083120313CD008316031387128312031379
:100C10004D1D0B2E0C2E122E4C0883160313940020
:100C20008715192E83124A084C0483160313940067
:100C30008711831203134D084B04940008003830C9
:100C40000A128A116F260A128A110E300A128A11AC
:100C50006F260A128A1101300A128A116F260A12AF
:100C60008A1106300A128A116F260A128A11803000
:100C70000A128A116F260A128A11080083120313BE
:100C8000CD00CC01432E4D1C462E472E4C2E4A083B
:100C9000CB004B08CC074C2E0310CA0D0310CD0C13
:100CA0004D08031D542E552E432E562E4C08582EFB
:100CB000080083120313CB00CA013A304B02031819
:100CC000622E632E6C2E30304B02031C682E692E70
:100CD0006C2ECA01CA0A6C2E4A0C6E2E08008312B2
:100CE0000313D1000A128A11A6250A128A1183124F
:100CF000031351088600881208130A128A11A926C4
:100D00000A128A1108008316031318121811831689
:100D10000317871519308316031399009A0183125C
:100D200003139817181683160313981608008312D6
:100D30000313CB0088164B08860088170C308312EB
:100D40000313CA00CA0BA22E0000831203138813D8
:100D500008008312031388170130CA000030CB004B
:100D60000A128A1172250A128A1183120313881338
:100D70000800BA2E83160313981CBF2EC02EBA2E5D
:100D8000C12E831203134A08990008000A128A111F
:100D9000D0260A128A11831203131308CF2E0800DB
:100DA000D12E83160313141CD62ED72ED12ED82E57
:100DB000080064008001840A040603190034040654
:0C0DC000DA2E760883120313930008005B
:04400E00D4E0FFFFFC
:00000001FF
