:020000040000FA
:060000000A128A110C280F
:10000800FE00030EFA000A08FB000A128A114F2CA0
:100018000A128A110F28F001F101F201F301F4012B
:10002800F5018313203084004A300A128A156A27A2
:100038000A128A11A0308400B0300A128A156A2781
:100048000A128A1183010A128A112A2883160313B5
:100058008801860107148316031788018901831212
:100068000313860185018801FF3083160317880072
:10007800FF308316031385008B170B1783120313A6
:100088008C11831603138C15851683120313CA016A
:10009800CB01CC0124300A128A11B3250A128A1125
:1000A8000A128A15A7270A128A110A128A11D2255A
:1000B8000A128A11483083120313CC008030CD0015
:1000C8000A128A11B0260A128A11C0308312031349
:1000D800CA000030CB000A128A11D3270A128A11EB
:1000E800383083120313CC008030CD000A128A11F5
:1000F800B0260A128A11033083120313EF008A30E4
:10010800EE005530ED00ED0B8728EE0B8728EF0B3E
:100118008728013083120313CA000030CB000A126B
:100128008A11D3270A128A119928273083120313B8
:10013800ED006D08D800A0300A128A11CA220A12EE
:100148008A11013083120313CE000030CF00013032
:10015800D0000030D1000A128A113B270A128A11F6
:10016800A03083120313CC000030CD000A128A118C
:10017800B0260A128A110B3083120313ED006D08A2
:10018800D8002708DA002608D9002308DC0022084E
:10019800DB002508DE002408DD002108E000200837
:1001A800DF002908E2002808E1003A300A128A1123
:1001B800CA220A128A11023083120313CE000030B9
:1001C800CF000130D0000030D1000A128A113B273D
:1001D8000A128A113A3083120313CC000030CD0082
:1001E8000A128A11B0260A128A11013083120313E7
:1001F800CA000030CB000A128A11F1250A128A11AE
:100208000529831203138C1E0A290B2905290C2999
:100218001A08ED00EE016D08A8006E08A900281C58
:100228001629172933290230CA000030CB002908C3
:10023800CD002808CC000A128A1140250A128A111A
:10024800831203134B08F5004A08F4007408013EB2
:10025800B80075080318013E003EB9004B2902306A
:10026800CA000030CB002908CD002808CC000A12AB
:100278008A1140250A128A11831203134B08F500CC
:100288004A08F4007508B9007408B8004B29823090
:1002980083120313EE00DD30ED00ED0B5129EE0B58
:1002A8005129023083120313CA000030CB000A120E
:1002B8008A11F1250A128A116129831203138C1EEF
:1002C80066296729612968291A08ED00EE016D0879
:1002D800A6006E08A700261C722973298F290230F0
:1002E800CA000030CB002708CD002608CC000A122F
:1002F8008A1140250A128A11831203134B08F3004E
:100308004A08F2007208013EB60073080318013E5D
:10031800003EB700A7290230CA000030CB002708EA
:10032800CD002608CC000A128A1140250A128A112B
:10033800831203134B08F3004A08F2007308B7004E
:100348007208B600A729823083120313EE00DD304D
:10035800ED00ED0BAD29EE0BAD290330831203132D
:10036800CA000030CB000A128A11F1250A128A113C
:10037800BD29831203138C1EC229C329BD29C42990
:100388001A08ED00EE016D08A4006E08A500241CF3
:10039800CE29CF29EB290230CA000030CB0025082E
:1003A800CD002408CC000A128A1140250A128A11AD
:1003B800831203134B08AF004A08AE002E08013E13
:1003C800B4002F080318013E003EB500032A02308E
:1003D800CA000030CB002508CD002408CC000A1242
:1003E8008A1140250A128A11831203134B08AF00A1
:1003F8004A08AE002F08B5002E08B400032A823040
:1004080083120313EE00DD30ED00ED0B092AEE0B2D
:10041800092A043083120313CA000030CB000A12E1
:100428008A11F1250A128A11192A831203138C1EC4
:100438001E2A1F2A192A202A1A08ED00EE016D0823
:10044800A2006E08A300221C2A2A2B2A472A02305F
:10045800CA000030CB002308CD002208CC000A12C5
:100468008A1140250A128A11831203134B08AD0022
:100478004A08AC002C08013EB2002D080318013EC2
:10048800003EB3005F2A0230CA000030CB002308C8
:10049800CD002208CC000A128A1140250A128A11BE
:1004A800831203134B08AD004A08AC002D08B300B3
:1004B8002C08B2005F2A823083120313EE00DD306D
:1004C800ED00ED0B652AEE0B652A05308312031348
:1004D800CA000030CB000A128A11F1250A128A11CB
:1004E800752A831203138C1E7A2A7B2A752A7C2A82
:1004F8001A08ED00EE016D08A0006E08A100201C8E
:10050800862A872AA32A0230CA000030CB00210895
:10051800CD002008CC000A128A1140250A128A113F
:10052800831203134B08AB004A08AA002A08013EAD
:10053800B0002B080318013E003EB100BB2A023070
:10054800CA000030CB002108CD002008CC000A12D8
:100558008A1140250A128A11831203134B08AB0033
:100568004A08AA002B08B1002A08B000BB2A82302A
:1005780083120313EE00DD30ED00ED0BC12AEE0B04
:10058800C12A992899280A128A110C288312031360
:10059800EA005930E3006308E600352C25306C0684
:1005A8000319D72AD82AE42A6C08E3006A088400C9
:1005B8006308831380000130E3006308EA07352CE1
:1005C800E701580884000A128A110A260A128A11B9
:1005D8002E3A031DF02AF12A292B0130E300630883
:1005E800D807EB01172B83120313580884000A124B
:1005F8008A110A260A128A11E3000A30E400640804
:10060800CA006B080A128A15E5270A128A11831292
:1006180003136307D03EE5006508EB000130E300F3
:100628006308D807172B580884000A128A110A266B
:100638000A128A110A128A15CF270A128A11031878
:10064800262B272BF72A332B332B83120313EB018B
:10065800332B332B492C4A2B4A2B352C4A2B013070
:1006680083120313D807FF30580784000A128A112F
:100678000A260A128A11EC00003A0319492C643A36
:1006880003194A2B0D3A03194A2B352C66088400A6
:1006980083130008E800840A0008E9000230E30038
:1006A8006308E607E91F592B5A2B642B0330E30034
:1006B8006308E704E809E909E80A0319E90A642B69
:1006C8006B08031D682B692B742B68086904031DCC
:1006D8006E2B6F2B742B0130E3006308EB07742B30
:1006E800EC01EC0A05306C06031D7B2B7C2B7E2B62
:1006F800A62BA62B6C08E3006307013E84000A12B0
:100708008A110A260A128A11E4000A128A110A2694
:100718000A128A11E50065086902031D952B640811
:1007280068020318982B992B9B2BA62BA62B01301C
:10073800E3006308EC0705306C06031DA42BA52B0A
:100748007E2BA62B6B08E300E401E31BE40364089B
:10075800803A803C031DB22B63086C020318B52B4A
:10076800B62BBD2B831203136B08E3006308EC0060
:10077800D92B831203136B08E300E401E31BE403A2
:100788006408803AE50080306502031DCD2B6C08B3
:1007980063020318D02BD12BD92B831203136C08B7
:1007A800E3006308EB00D92BD92B831203136708E6
:1007B80003390319E02BE12B2A2C2D30E3006A08BA
:1007C80084006308831380000130E3006308EA07AC
:1007D8002A2C2A2C0A30D2000030D3006B08E30000
:1007E8006307013E84000A128A110A260A128A1136
:1007F800CA000A128A110A260A128A11CB0069084D
:10080800CD006808CC000A128A1163260A128A11E0
:10081800831203134B08D5004A08D4000A128A1120
:10082800F8260A128A11831203135208303EE40094
:100838006408EC006C08E3006A088400630883130A
:1008480080000130E3006308EA072A2CFF30E30048
:100858006308EB076B0A031D322C332CEE2B352C67
:10086800352C0130D807FF30580784000A128A1146
:100878000A260A128A11E3006308EC006C08031DBB
:10088800462C472CD22A492C492C6A088400831309
:1008980080014E2C0800831203138C1D542C552CF8
:1008A800392D0A128A157B270A128A11F800F901D4
:1008B8007808F0007908F10070037104031D652CB5
:1008C800662C712C0310740DF600750DF7000A12D2
:1008D8008A1565270A128A11352D023070067104AF
:1008E800031D772C782C832C0310720DF600730DE2
:1008F800F7000A128A1565270A128A11352D033066
:1009080070067104031D892C8A2C972C03108312FE
:1009180003132E0DF6002F0DF7000A128A1565270E
:100928000A128A11352D043070067104031D9D2C9E
:100938009E2CAB2C0310831203132C0DF6002D0DE7
:10094800F7000A128A1565270A128A11352D053013
:1009580070067104031DB12CB22CBF2C0310831236
:1009680003132A0DF6002B0DF7000A128A156527C6
:100978000A128A11352D063070067104031DC52C24
:10098800C62CD32C031083120313380DF600390D2F
:10099800F7000A128A1565270A128A11352D0730C1
:1009A80070067104031DD92CDA2CE72C031083126E
:1009B8000313360DF600370DF7000A128A1565275E
:1009C8000A128A11352D083070067104031DED2CAA
:1009D800EE2CFB2C031083120313340DF600350D97
:1009E800F7000A128A1565270A128A11352D09306F
:1009F80070067104031D012D022D0F2D03108312A3
:100A08000313320DF600330DF7000A128A15652715
:100A18000A128A11352D0A3070067104031D152D2E
:100A2800162D232D031083120313300DF600310DFC
:100A3800F7000A128A1565270A128A11352D003027
:100A4800F600F7000A128A1565270A128A11352D51
:100A5800352D352D352D352D352D352D352D352D7E
:100A6800352D831203138C11392D7B088A007A0ED9
:100A78008300FE0E7E0E090083120313D001CB1FE4
:100A8800462D472D4F2DCA09CB09CA0A0319CB0A8F
:100A9800D001D00A4F2DCD1F522D532D5D2DCC09DD
:100AA800CD09CC0A0319CD0A0130CE004E08D00674
:100AB8005D2DD101D2014A084B040319642D652D1F
:100AC800A22DCF01CF0A742D01300310CA0DCB0D12
:100AD800FF3E031D692D0130CE004E08CF07742D4F
:100AE800CB1F772D782D682D7A2D7A2D01300310A4
:100AF800D10DD20DFF3E031D7B2D4B084D02031D6A
:100B0800872D4A084C02031C8A2D8B2D932D4A08E9
:100B1800CC024B08031CCD03CD025114932D013098
:100B28000310CB0CCA0CFF3E031D942D0130CF02DD
:100B3800031D9F2DA02D7A2DA22DA22D500803193B
:100B4800A62DA72DAD2DD109D209D10A0319D20A94
:100B5800AD2D5208CB005108CA00B22D08008312EF
:100B68000313CD00831603138712831203134D1D3D
:100B7800BE2DBF2DC52D4C08831603139400871571
:100B8800CC2D83124A084C04831603139400871152
:100B9800831203134D084B049400080038300A12DE
:100BA8008A15BB270A128A110E300A128A15BB272A
:100BB8000A128A1101300A128A15BB270A128A11F1
:100BC80006300A128A15BB270A128A1180300A12C7
:100BD8008A15BB270A128A110800F22D83160313FF
:100BE800981CF72DF82DF22DF92D831203134A08BE
:040BF8009900080058
:100C0000FF1B0A2E83137F1883170008840A031919
:100C1000FF0A080006308A000408840A82070034AC
:100C2000013400340A34003464340034E8340334CA
:100C30001034273425342E343134643420342534B0
:100C40002E34313464342034203425342E3433347B
:100C50006434203425342E34313464342034203448
:100C60002034203425342E34643400344634203487
:100C70004C346C34203444346934733420344C3470
:100C800069342034203453346534633400344534BB
:100C900053345434523441344434413420342034B5
:100CA00023343134373430343734383400344A3430
:100CB0004F345334453420344A3441345634493463
:100CC00045345234003483120313D001D1014A0851
:100CD0004B0403196C2E6D2EAA2ECF01CF0A7C2E49
:100CE00001300310CA0DCB0DFF3E031D712E0130E4
:100CF000CE004E08CF077C2ECB1F7F2E802E702E6D
:100D0000822E822E01300310D00DD10DFF3E031D27
:100D1000832E4B084D02031D8F2E4A084C02031CE4
:100D2000922E932E9B2E4A08CC024B08031CCD0317
:100D3000CD0250149B2E01300310CB0CCA0CFF3E89
:100D4000031D9C2E0130CF02031DA72EA82E822E3C
:100D5000AA2EAA2E5108CB005008CA00AF2E0800B8
:100D600083120313D101D201DA2E51084C07CF00B0
:100D70004D08CE000318CE0AD11FBF2ECE0383121A
:100D800003134E08D0005008FF004F0884000A12D9
:100D90008A1100260A128A110A128A1595270A1248
:100DA0008A11013083120313D1070318D20A0030CD
:100DB000D207DA2E51084C07CF004D08CE00031899
:100DC000CE0AD11FE42ECE03831203134E08D000A7
:100DD0005008FF004F0884000A128A1100260A12E8
:100DE0008A11003A031DF52EF62EB52EF72E0800B7
:100DF00083120313520853040319FF2E002F352FBB
:100E0000D701D70A0F2F01300310D20DD30DFF3EAB
:100E1000031D042F0130D6005608D7070F2FD31F0C
:100E2000122F132F032F152F152F53085502031DB3
:100E30001B2F52085402031C1E2F1F2F262F52084F
:100E4000D4025308031CD503D502262F013003100A
:100E5000D30CD20CFF3E031D272F0130D702031DF8
:100E6000322F332F152F352F352F5508D300540827
:100E7000D2003A2F0800831203134E034F04031DC0
:100E8000422F432F552F50087F3ED20051080318A0
:100E9000013E003ED3005308CB005208CA000A129C
:100EA0008A11D3270A128A11712F02308312031379
:100EB0004E064F04031D5D2F5E2F712F5008BF3E5D
:100EC000D20051080318013E003ED3005308CB0066
:100ED0005208CA000A128A11D3270A128A11712FE6
:100EE000712F080083120313CE01CF0100304F028F
:100EF000793003194E02031C7E2F7F2F812FA52FDF
:100F0000A52FCC01CD018A2F0130CC070318CD0AC3
:100F10000030CD074D084B02031D902F4C084A02AC
:100F20000318932F942F842F952F0130CE07031889
:100F3000CF0A0030CF0700304F02793003194E023C
:100F4000031CA32FA42F812FA52F0800FF3083128D
:100F5000031386008030D0005008860588120817D9
:100F600088130130CA000030CB000A128A117227A0
:100F70000A128A1183120313881780300606031D94
:100F8000C22FC32FD22F88130130CA000030CB00EC
:100F90000A128A1172270A128A1183120313881700
:100FA000D22FD22F08008312031388120730831226
:100FB0000313CD007C30CC00CC0BDC2FCD0BDC2F11
:100FC00000008312031388174A0886000730831233
:100FD0000313CD007C30CC00CC0BEC2FCD0BEC2FD1
:100FE0000000831203138813073083120313CD000C
:100FF0007C30CC00CC0BFA2FCD0BFA2F0000080070
:101ECA007608831203139300080064008001840AD1
:101EDA0004060319003404066B2F732F83160313A9
:101EEA00141C782F792F732F7A2F08000A128A155B
:101EFA0072270A128A15831203131308842F080003
:101F0A008312031388170130CA000030CB000A126B
:101F1A008A1172270A128A1583120313881308007A
:101F2A0083120313CB0088164B08860088170C30DF
:101F3A0083120313CA00CA0BA02F000083120313D3
:101F4A00881308008316031318121811831603172F
:101F5A00871519308316031399009A018312031304
:101F6A00981718168316031398160800831203137A
:101F7A00D1000A128A11A6270A128A15831203139C
:101F8A0051088600881208130A128A1585270A1230
:101F9A008A15080083120313CB00CA013A304B0298
:101FAA000318D82FD92FE22F30304B02031CDE2F13
:101FBA00DF2FE22FCA01CA0AE22F4A0CE42F0800D7
:101FCA0083120313CD00CC01EA2F4D1CED2FEE2F07
:101FDA00F32F4A08CB004B08CC07F32F0310CA0D86
:101FEA000310CD0C4D08031DFB2FFC2FEA2FFD2FEC
:061FFA004C08FF2F080057
:04400E00D4E0FFFFFC
:00000001FF
