:020000040000FA
:100000000A128A11D12FFF1B0D2883137F18831723
:100010000008840A0319FF0A080000308A00040857
:10002000840A82070034013400340A340034643412
:100030000034E83403341034273425342E3431347A
:100040006434203425342E3431346434203425345F
:100050002E3433346434203425342E343134643433
:10006000203425342E34323464340034453453344F
:100070005434523441344434413420342034233411
:100080003134373430343734383400344A344F3430
:100090005334453420344A34413456344934453499
:1000A00052340034532883160313981C58285928B7
:1000B00053285A2870088312031399000800F2018C
:1000C000F30100307302323003197202031C6928F5
:1000D0006A286C289328932883120313051403308D
:1000E000F1009730F000F00B7328F10B732878289B
:1000F0008312031305101830F1005F30F000F00B8D
:100100007F28F10B7F280130F2070318F30A003033
:10011000F30700307302323003197202031C912876
:1001200092286C2893280800283083120313940027
:10013000831603139101831203134908CD004A0863
:10014000CE004B08CF004C08D00002300310CD0D7C
:10015000CE0DCF0DD00DFF3E031DA6285008F30095
:100160004F08F2004E08F1004D08F0000030F70093
:100170003D30F6000930F5000030F4000A128A1113
:10018000D8210A128A117008FF3E831603139300C8
:1001900094018715071608000A128A15AD250A1260
:1001A0008A11D030F0000030F1000A128A15BF2504
:1001B0000A128A117708F1007608F0000A128A15EF
:1001C000BF250A128A110A128A15A4250A128A1159
:1001D000D130F0000030F1000A128A15BF250A1252
:1001E0008A110030F000F1000A128A1538270A122D
:1001F0008A117108F9007008F8000A128A15B625EC
:100200000A128A117908F7007808F6000729080011
:100210007808790403190D290E294329FD01FD0AE7
:100220001D2901300310F80DF90DFF3E031D1229A1
:100230000130FC007C08FD071D29F91F2029212918
:1002400011292329232979087B02031D29297808EC
:100250007A02031C2C292D2934297808FA027908FE
:10026000031CFB03FB02342901300310F90CF80CCA
:10027000FF3E031D35290130FD02031D40294129A0
:100280002329432943297B08F9007A08F8004829E3
:100290000800F701F8016F2977087207F500730865
:1002A000F4000318F40AF71F5629F4037408F60043
:1002B000760883120313FF00750884000A128A115E
:1002C00003200A128A110A128A15E2250A128A11DB
:1002D0000130F7070318F80A0030F8076F2977088C
:1002E0007207F5007308F4000318F40AF71F792960
:1002F000F4037408F600760883120313FF007508F0
:1003000084000A128A1103200A128A11003A031D7E
:100310008A298B294C298C290800F501F6017008DF
:100320007104031994299529D229F701F70AA42900
:1003300001300310F00DF10DFF3E031D992901302E
:10034000F4007408F707A429F11FA729A829982900
:10035000AA29AA2901300310F50DF60DFF3E031D51
:10036000AB2971087302031DB72970087202031CC0
:10037000BA29BB29C3297008F2027108031CF303D0
:10038000F3027514C32901300310F10CF00CFF3E89
:10039000031DC4290130F702031DCF29D029AA2942
:1003A000D229D2297608F1007508F000D729080073
:1003B0000030FC000030FB000030FA000030F90093
:1003C00073087204710470040319E729E8293B2AB1
:1003D000FD01FD0AF9290130F8000310F00DF10DBF
:1003E000F20DF30DF80BED290130F8007808FD0748
:1003F000F929F31FFC29FD29EB29FF29FF290130E9
:10040000F8000310F90DFA0DFB0DFC0DF80B012A95
:1004100073087702031D162A72087602031D162A36
:1004200071087502031D162A70087402031C192A2C
:100430001A2A2A2A7008F4027108031C710FF502A7
:100440007208031C720FF6027308031C730FF70285
:1004500079142A2A01300310F30CF20CF10CF00C81
:10046000FF3E031D2B2A0130FD02031D382A392AC5
:10047000FF293B2A3B2A7C08F3007B08F2007A081C
:10048000F1007908F000442A0800FD004C2A0130F0
:10049000F8007808FD074C2A7D088400203083137B
:1004A00000060319542A552A472A7D08840009307A
:1004B000000603195C2A5D2A472A5E2AFB01FC011B
:1004C000FA017D0884002D300006031D682A692A80
:1004D000722A0130F8007808FA070130F80078082D
:1004E000FD07A52A7D0884002B300006031D792A0C
:1004F0007A2AA52A0130F8007808FD07A52AA52A3E
:10050000A52A7C08F1007B08F0000A30F2000030D8
:10051000F3000A128A15B9260A128A117D0884008E
:10052000831300087007F80071080318710AF900B6
:100530007808D03EFB0079080318013EFF3EFC001E
:100540000130F8007808FD07A52A7D08840000081E
:100550000A128A1535260A128A110318B02AB12AFE
:10056000812AB22A7A080319B62AB72AC42A7B0933
:10057000F8007C09F900F80A0319F90A7808F6006E
:100580007908F700C92AC92A7C08F7007B08F60019
:10059000C92A080083120313D9004A30D400540832
:1005A000D7003B2C25305D060319D72AD82AE42A28
:1005B0005D08D4005908840054088313800001307A
:1005C000D4005408D9073B2CD801490884000A12EA
:1005D0008A110D200A128A112E3A031DF02AF12ADF
:1005E000292B0130D4005408C907DC01172B8312D2
:1005F0000313490884000A128A110D200A128A1175
:10060000D4000A30D5005508F0005C080A128A159B
:100610005D260A128A11831203135407D03ED600B6
:100620005608DC000130D4005408C907172B4908CC
:1006300084000A128A110D200A128A110A128A15E0
:1006400035260A128A110318262B272BF72A332B5B
:10065000332B83120313DC01332B332B4F2C522B00
:10066000522B3B2C522B013083120313C907FF304E
:10067000490784000A128A110D200A128A11DD002E
:10068000D400D5015508003A0319472B3B2C5408D8
:10069000003A03194F2C643A0319522B0D3A0319EF
:1006A000522B3B2C5708840083130008DA00840A7D
:1006B0000008DB000230D4005408D707DB1F612B91
:1006C000622B6C2B0330D4005408D804DA09DB0900
:1006D000DA0A0319DB0A6C2B5C08031D702B712BE3
:1006E0007C2B5A085B04031D762B772B7C2B013067
:1006F000D4005408DC077C2BDD01DD0A05305D06E3
:10070000031D832B842B862BAE2BAE2B5D08D400D0
:100710005407013E84000A128A110D200A128A1120
:10072000D5000A128A110D200A128A11D600560825
:100730005B02031D9D2B55085A020318A02BA12B09
:10074000A32BAE2BAE2B0130D4005408DD070530AF
:100750005D06031DAC2BAD2B862BAE2B5C08D400A5
:10076000D501D41BD5035508803A803C031DBA2B14
:1007700054085D020318BD2BBE2BC52B8312031337
:100780005C08D4005408DD00E12B831203135C08DD
:10079000D400D501D41BD5035508803AD60080304B
:1007A0005602031DD52B5D0854020318D82BD92BF4
:1007B000E12B831203135D08D4005408DC00E12B05
:1007C000E12B83120313580803390319E82BE92B93
:1007D000302C2D30D4005908840054088313800035
:1007E0000130D4005408D907302C302C0A30F800DE
:1007F0000030F9005C08D4005407013E84000A125E
:100800008A110D200A128A11F0000A128A110D2095
:100810000A128A11F1005B08F3005A08F2000A126A
:100820008A118D210A128A117108FB007008FA00E2
:100830000A128A1108210A128A117808303E83129E
:100840000313D5005508DD005D08D4005908840065
:100850005408831380000130D4005408D907302C89
:10086000FF30D4005408DC075C0A031D382C392CF7
:10087000F62B3B2C3B2C0130C907FF304907840085
:100880000A128A110D200A128A11D4005408DD00C0
:100890005D08031D4C2C4D2CD22A4F2C4F2C59088F
:1008A000840083138001542C0800831603138801ED
:1008B00086018501071483160317880189018312B5
:1008C000031386018501880105150030CC00013035
:1008D000CB008630CA00A030C9000A128A119420C9
:1008E0000A128A110A128A1549260A128A110A1254
:1008F0008A1576260A128A113430F2008030F3000D
:100900000A128A1149210A128A11C030F0000030FF
:10091000F1000A128A1595260A128A112430F20073
:100920008030F3000A128A1149210A128A11F43028
:10093000F0000130F1000A128A1567270A128A11A5
:100940000130F0000030F1000A128A1595260A12D3
:100950008A11AA2C0A128A15AD250A128A11513061
:10096000F0000030F1000A128A15BF250A128A1120
:100970000030F000F1000A128A1538270A128A1195
:10098000710883120313C5007008C4000A128A1587
:10099000B6250A128A111A3083120313DF00F730CA
:1009A000DE00DE0BD12CDF0BD12CD62C0A128A15DF
:1009B000AD250A128A116130F0000030F1000A12F0
:1009C0008A15BF250A128A110030F000F1000A12C0
:1009D0008A1538270A128A11710883120313C3007B
:1009E0007008C2000A128A15B6250A128A111A3036
:1009F00083120313DF00F730DE00DE0BFD2CDF0B6C
:100A0000FD2C022D0A128A15AD250A128A117130A9
:100A1000F0000030F1000A128A15BF250A128A116F
:100A20000030F000F1000A128A1538270A128A11E4
:100A3000710883120313C1007008C0000A128A15DE
:100A4000B6250A128A111A3083120313DF00F73019
:100A5000DE00DE0B292DDF0B292D2E2D0030F600B8
:100A6000F7000A128A11CC200A128A117708831221
:100A70000313B1007608B0000130F6000030F70033
:100A80000A128A11CC200A128A11770883120313E2
:100A9000AF007608AE000230F6000030F7000A1210
:100AA0008A11CC200A128A11770883120313AD0031
:100AB0007608AC001F302C05AA0000302D05AB00D5
:100AC00020302C05A00000302D05A1000330F600D9
:100AD0000030F7000A128A11CC200A128A11770816
:100AE00083120313A9007608A8000430F600003032
:100AF000F7000A128A11CC200A128A117708831291
:100B00000313A9007608A8000530F6000030F700AE
:100B10000A128A11CC200A128A1177088312031351
:100B2000A5007608A4000630F6000030F7000A128F
:100B30008A11CC200A128A11770883120313A300AA
:100B40007608A2002A080A128A15D5250A128A11E7
:100B500083120313DE005E08E0002A080A128A15D9
:100B600096250A128A1183120313DE005E08E10043
:100B70002E080A128A15D5250A128A118312031328
:100B8000DE005E08E3002E080A128A1596250A1276
:100B90008A1183120313DE005E08E40030080A1293
:100BA0008A15D5250A128A1183120313DE005E0806
:100BB000E60030080A128A1596250A128A11831255
:100BC0000313DE005E08E70028080A128A15D525FF
:100BD0000A128A1183120313DE005E0883160313C0
:100BE000C1008312031328080A128A1596250A12D7
:100BF0008A1183120313DE005E0883160313C200FA
:100C00008312031324080A128A15D5250A128A11A1
:100C100083120313DE005E0883160313C4008312DD
:100C2000031324080A128A1596250A128A118312C0
:100C30000313DE005E0883160313C500831203133B
:100C400022080A128A15D5250A128A118312031363
:100C5000DE005E0883160313C70083120313220805
:100C60000A128A1596250A128A1183120313DE00CE
:100C70005E0883160313C8008312031330080A1298
:100C80008A1596250A128A1183120313DE005E0864
:100C9000C90030080A128A15D5250A128A11831252
:100CA0000313DE005E08C80048300A128A1145228C
:100CB0000A128A11770883120313BD007608BC005C
:100CC000200821040319652E662E6F2E5030DE0099
:100CD0005E08E9004D30DE005E08EA00782E413003
:100CE000DE005E08E9004D30DE005E08EA00782E86
:100CF0000B30DE005E08C9004508CB004408CA007E
:100D00004108CD004008CC004308CF004208CE0087
:100D10003F08D1003E08D0003D08D3003C08D20077
:100D2000CA300A128A11CA220A128A110230F40049
:100D30000030F5000130F6000030F7000A128A1585
:100D400099270A128A11CA30F2000030F3000A1201
:100D50008A1149210A128A110130F4000030F5008D
:100D60000130F6000030F7000A128A1599270A129E
:100D70008A116030F2000030F3000A128A11492112
:100D80000A128A11831203138C1EC72EC82E542FE9
:100D90001A08DE00DF015E08C6005F08C700542F96
:100DA000542F4508F1004408F0000A128A1152201D
:100DB0000A128A110D3083120313DF00FB30DE00AC
:100DC000DE0BE02EDF0BE02E6C2F831203134308A3
:100DD000F1004208F0000A128A1152200A128A1108
:100DE0000D3083120313DF00FB30DE00DE0BF62E26
:100DF000DF0BF62E6C2F831203134108F10040081D
:100E0000F0000A128A1152200A128A110D30831240
:100E10000313DF00FB30DE00DE0B0C2FDF0B0C2F8B
:100E20006C2F831203133F08F1003E08F0000A12F2
:100E30008A1152200A128A110D3083120313DF0027
:100E4000FB30DE00DE0B222FDF0B222F6C2F8312F4
:100E500003133D08F1003C08F0000A128A115220E9
:100E60000A128A110D3083120313DF00FB30DE00FB
:100E7000DE0B382FDF0B382F6C2F831203133D0846
:100E8000F1003C08F0000A128A1152200A128A115D
:100E90000D3083120313DF00FB30DE00DE0B4E2F1C
:100EA000DF0B4E2F6C2F6C2F831203134708003A71
:100EB00003195B2F3D2F4608013A0319D12E033A3F
:100EC0000319E52E013A0319FB2E073A0319112FD6
:100ED000013A0319272F3D2F8312031344034504BE
:100EE000031D732F742F7F2F0A128A15CC270A1225
:100EF0008A110A128A115F200A128A11802F0510A6
:100F000083120313071C852F862F8B2F0130B2000D
:100F10000030B3008E2FB201B3018E2F0718912F2E
:100F2000922F952FBE01BF019A2F0130BE000030D5
:100F3000BF009A2F4308803AFF0080307F02031DD4
:100F4000A32F0B304202031CA62FA72FAE2F831214
:100F500003130718AC2FAD2FB32FAE2F831203133B
:100F6000B201B301B82F0130B2000030B300B82F86
:100F700032033304031DBD2FBE2FC02F0515C22F12
:100F80000511C22F40034104031DC72FC82FCA2FCC
:100F90008514AA2C8510AA2CAA2CAA2C0A128A1114
:100FA00000288313CA30FD000E30FE00E130FF0040
:100FB000A03084000A128A1526260A128A116C3083
:100FC000FD000D30FE00C930FF00603084000A12C1
:100FD0008A1526260A128A11CA308400DA300A12CB
:100FE0008A159C250A128A112030840049300A1281
:100FF0008A159C250A128A1183010A128A11552C1E
:101B2C00F00070080F39303E9B2D080064008001D6
:101B3C00840A04060319003404069D2D0A128A1522
:101B4C00F1250A128A1583160313911408000A1240
:101B5C008A15F1250A128A1583160313111408002D
:101B6C000A128A15F1250A128A1583160313111508
:101B7C0008000A128A15F1250A128A1570088312B8
:101B8C00031393000800303430343A34303430349A
:101B9C003A3430343034203450344D340034F10085
:101BAC007108F00004300310F00CFF3E031DD92D1A
:101BBC007008303EE12D0800F100831203138816E3
:101BCC007108860088170D30F000F00BEB2D831296
:101BDC00031388130800F22D831603131419F72D21
:101BEC00F82DF22D11081F39031DFD2DFE2DF22DA0
:101BFC00FF2D08008312031388170130F00000300A
:101C0C00F1000A128A1567270A128A158312031328
:101C1C0088130800F7000A128A150B270A128A1576
:101C2C007708831203138600881208130A128A1588
:101C3C0000260A128A1508007E088A007F08820096
:101C4C000A128A1522260A128A158000840A0408B0
:101C5C007D0603190034FF0A0319FE0A262EF10033
:101C6C00F0013A30710203183C2E3D2E462E3030D6
:101C7C007102031C422E432E462EF001F00A462E12
:101C8C00700C482E080083160313181218118316B3
:101C9C000317871519308316031399009A018312C1
:101CAC000313981718168316031398160800F300DD
:101CBC00F201602E731C632E642E692E7008F100E5
:101CCC007108F207692E0310F00D0310F30C730862
:101CDC00031D712E722E602E732E7208752E080045
:101CEC0038300A128A1510260A128A150E300A127A
:101CFC008A1510260A128A1501300A128A15102626
:101D0C000A128A1506300A128A1510260A128A152A
:101D1C0080300A128A1510260A128A1508008312BE
:101D2C00031388120730F3007D30F200F20B9C2E67
:101D3C00F30B9C2E83120313881770088600073050
:101D4C00F3007D30F200F20BA92EF30BA92E8312B7
:101D5C00031388130730F3007D30F200F20BB42E1E
:101D6C00F30BB42E0800F401F501BC2E701CBF2E31
:101D7C00C02EC62E7208F4070318F50A7308F5076F
:101D8C0001300310F20DF30DFF3E031DC72E013081
:101D9C000310F10CF00CFF3E031DCE2E70087104E5
:101DAC00031DD92EDA2EBC2EDB2E7508F10074081B
:101DBC00F000E02E0800533434343A3431342034FB
:101DCC00303430343A34303430343A3430343034D3
:101DDC00203441344D340034533431343A343134BA
:101DEC002034533432343A343134203464343A3479
:101DFC003034303430340034303430342D343034EA
:101E0C0030342D34303430340034FF30831203132B
:101E1C0086008030F600760886058812081788132D
:101E2C000130F0000030F1000A128A1567270A12FF
:101E3C008A1583120313881780300606031D272F7B
:101E4C00282F372F88130130F0000030F1000A12D0
:101E5C008A1567270A128A15831203138817372FDE
:101E6C00372F08000A128A15F1250A128A158316D3
:101E7C00031391150A128A15F1250A128A15831279
:101E8C0003131308F200F3017208F4007308F50051
:101E9C000A128A15F1250A128A1570037104031DA2
:101EAC00582F592F5D2F831603139112602F831611
:101EBC000313911611167508F1007408F000662FC3
:101ECC000800F401F5010030750279300319740231
:101EDC00031C712F722F742F982F982FF201F3017E
:101EEC007D2F0130F2070318F30A0030F307730853
:101EFC007102031D832F720870020318862F872F1F
:101F0C00772F882F0130F4070318F50A0030F507F6
:101F1C0000307502793003197402031C962F972F29
:101F2C00742F982F080074037504031D9E2F9F2F88
:101F3C00B12F76087F3EF80077080318013E003E6B
:101F4C00F9007908F1007808F0000A128A15952634
:101F5C000A128A15CB2F023074067504031DB72F95
:101F6C00B82FCB2F7608BF3EF80077080318013E38
:101F7C00003EF9007908F1007808F0000A128A1581
:101F8C0095260A128A15CB2FCB2F0800F201F301EC
:101F9C0000307302323003197202031CD62FD72F74
:101FAC00D92FFF2FFF2F831203130514C730F00016
:101FBC00DF2FF00BDE2FE22FE32F8312031305101C
:101FCC001930F100AB30F000F00BEA2FF10BEA2FD7
:101FDC00EF2F0130F2070318F30A0030F30700303B
:101FEC007302323003197202031CFD2FFE2FD92FFE
:041FFC00FF2F0800AB
:04400E00D4E0FFFFFC
:00000001FF
